{
  "contractName": "SolnSquareVerifier",
  "abi": [
    {
      "inputs": [
        {
          "internalType": "address",
          "name": "verifierAddress",
          "type": "address"
        },
        {
          "internalType": "string",
          "name": "name",
          "type": "string"
        },
        {
          "internalType": "string",
          "name": "symbol",
          "type": "string"
        }
      ],
      "payable": false,
      "stateMutability": "nonpayable",
      "type": "constructor"
    },
    {
      "anonymous": false,
      "inputs": [
        {
          "indexed": true,
          "internalType": "address",
          "name": "owner",
          "type": "address"
        },
        {
          "indexed": true,
          "internalType": "address",
          "name": "approved",
          "type": "address"
        },
        {
          "indexed": true,
          "internalType": "uint256",
          "name": "tokenId",
          "type": "uint256"
        }
      ],
      "name": "Approval",
      "type": "event"
    },
    {
      "anonymous": false,
      "inputs": [
        {
          "indexed": true,
          "internalType": "address",
          "name": "owner",
          "type": "address"
        },
        {
          "indexed": true,
          "internalType": "address",
          "name": "operator",
          "type": "address"
        },
        {
          "indexed": false,
          "internalType": "bool",
          "name": "approved",
          "type": "bool"
        }
      ],
      "name": "ApprovalForAll",
      "type": "event"
    },
    {
      "anonymous": false,
      "inputs": [
        {
          "indexed": false,
          "internalType": "address",
          "name": "newOwner",
          "type": "address"
        }
      ],
      "name": "OwnershipTransfered",
      "type": "event"
    },
    {
      "anonymous": false,
      "inputs": [
        {
          "indexed": false,
          "internalType": "address",
          "name": "owner",
          "type": "address"
        }
      ],
      "name": "Paused",
      "type": "event"
    },
    {
      "anonymous": false,
      "inputs": [
        {
          "indexed": false,
          "internalType": "uint256",
          "name": "newSolutionIndex",
          "type": "uint256"
        },
        {
          "indexed": false,
          "internalType": "address",
          "name": "newSolutionAddress",
          "type": "address"
        }
      ],
      "name": "SolutionAdded",
      "type": "event"
    },
    {
      "anonymous": false,
      "inputs": [
        {
          "indexed": true,
          "internalType": "address",
          "name": "from",
          "type": "address"
        },
        {
          "indexed": true,
          "internalType": "address",
          "name": "to",
          "type": "address"
        },
        {
          "indexed": true,
          "internalType": "uint256",
          "name": "tokenId",
          "type": "uint256"
        }
      ],
      "name": "Transfer",
      "type": "event"
    },
    {
      "anonymous": false,
      "inputs": [
        {
          "indexed": false,
          "internalType": "address",
          "name": "owner",
          "type": "address"
        }
      ],
      "name": "Unpaused",
      "type": "event"
    },
    {
      "constant": false,
      "inputs": [
        {
          "internalType": "bytes32",
          "name": "_myid",
          "type": "bytes32"
        },
        {
          "internalType": "string",
          "name": "_result",
          "type": "string"
        }
      ],
      "name": "__callback",
      "outputs": [],
      "payable": false,
      "stateMutability": "nonpayable",
      "type": "function"
    },
    {
      "constant": false,
      "inputs": [
        {
          "internalType": "bytes32",
          "name": "_myid",
          "type": "bytes32"
        },
        {
          "internalType": "string",
          "name": "_result",
          "type": "string"
        },
        {
          "internalType": "bytes",
          "name": "_proof",
          "type": "bytes"
        }
      ],
      "name": "__callback",
      "outputs": [],
      "payable": false,
      "stateMutability": "nonpayable",
      "type": "function"
    },
    {
      "constant": false,
      "inputs": [
        {
          "internalType": "address",
          "name": "to",
          "type": "address"
        },
        {
          "internalType": "uint256",
          "name": "tokenId",
          "type": "uint256"
        }
      ],
      "name": "approve",
      "outputs": [],
      "payable": false,
      "stateMutability": "nonpayable",
      "type": "function"
    },
    {
      "constant": true,
      "inputs": [
        {
          "internalType": "address",
          "name": "owner",
          "type": "address"
        }
      ],
      "name": "balanceOf",
      "outputs": [
        {
          "internalType": "uint256",
          "name": "",
          "type": "uint256"
        }
      ],
      "payable": false,
      "stateMutability": "view",
      "type": "function"
    },
    {
      "constant": true,
      "inputs": [
        {
          "internalType": "uint256",
          "name": "tokenId",
          "type": "uint256"
        }
      ],
      "name": "getApproved",
      "outputs": [
        {
          "internalType": "address",
          "name": "",
          "type": "address"
        }
      ],
      "payable": false,
      "stateMutability": "view",
      "type": "function"
    },
    {
      "constant": true,
      "inputs": [],
      "name": "getBaseTokenURI",
      "outputs": [
        {
          "internalType": "string",
          "name": "",
          "type": "string"
        }
      ],
      "payable": false,
      "stateMutability": "view",
      "type": "function"
    },
    {
      "constant": true,
      "inputs": [],
      "name": "getName",
      "outputs": [
        {
          "internalType": "string",
          "name": "",
          "type": "string"
        }
      ],
      "payable": false,
      "stateMutability": "view",
      "type": "function"
    },
    {
      "constant": true,
      "inputs": [],
      "name": "getOwner",
      "outputs": [
        {
          "internalType": "address",
          "name": "",
          "type": "address"
        }
      ],
      "payable": false,
      "stateMutability": "view",
      "type": "function"
    },
    {
      "constant": true,
      "inputs": [],
      "name": "getSymbol",
      "outputs": [
        {
          "internalType": "string",
          "name": "",
          "type": "string"
        }
      ],
      "payable": false,
      "stateMutability": "view",
      "type": "function"
    },
    {
      "constant": true,
      "inputs": [
        {
          "internalType": "address",
          "name": "owner",
          "type": "address"
        },
        {
          "internalType": "address",
          "name": "operator",
          "type": "address"
        }
      ],
      "name": "isApprovedForAll",
      "outputs": [
        {
          "internalType": "bool",
          "name": "",
          "type": "bool"
        }
      ],
      "payable": false,
      "stateMutability": "view",
      "type": "function"
    },
    {
      "constant": false,
      "inputs": [
        {
          "internalType": "address",
          "name": "to",
          "type": "address"
        },
        {
          "internalType": "uint256",
          "name": "tokenId",
          "type": "uint256"
        }
      ],
      "name": "mint",
      "outputs": [
        {
          "internalType": "bool",
          "name": "",
          "type": "bool"
        }
      ],
      "payable": false,
      "stateMutability": "nonpayable",
      "type": "function"
    },
    {
      "constant": true,
      "inputs": [
        {
          "internalType": "uint256",
          "name": "tokenId",
          "type": "uint256"
        }
      ],
      "name": "ownerOf",
      "outputs": [
        {
          "internalType": "address",
          "name": "",
          "type": "address"
        }
      ],
      "payable": false,
      "stateMutability": "view",
      "type": "function"
    },
    {
      "constant": false,
      "inputs": [
        {
          "internalType": "address",
          "name": "from",
          "type": "address"
        },
        {
          "internalType": "address",
          "name": "to",
          "type": "address"
        },
        {
          "internalType": "uint256",
          "name": "tokenId",
          "type": "uint256"
        }
      ],
      "name": "safeTransferFrom",
      "outputs": [],
      "payable": false,
      "stateMutability": "nonpayable",
      "type": "function"
    },
    {
      "constant": false,
      "inputs": [
        {
          "internalType": "address",
          "name": "from",
          "type": "address"
        },
        {
          "internalType": "address",
          "name": "to",
          "type": "address"
        },
        {
          "internalType": "uint256",
          "name": "tokenId",
          "type": "uint256"
        },
        {
          "internalType": "bytes",
          "name": "_data",
          "type": "bytes"
        }
      ],
      "name": "safeTransferFrom",
      "outputs": [],
      "payable": false,
      "stateMutability": "nonpayable",
      "type": "function"
    },
    {
      "constant": false,
      "inputs": [
        {
          "internalType": "address",
          "name": "to",
          "type": "address"
        },
        {
          "internalType": "bool",
          "name": "approved",
          "type": "bool"
        }
      ],
      "name": "setApprovalForAll",
      "outputs": [],
      "payable": false,
      "stateMutability": "nonpayable",
      "type": "function"
    },
    {
      "constant": false,
      "inputs": [
        {
          "internalType": "bool",
          "name": "newState",
          "type": "bool"
        }
      ],
      "name": "setPauseState",
      "outputs": [],
      "payable": false,
      "stateMutability": "nonpayable",
      "type": "function"
    },
    {
      "constant": true,
      "inputs": [
        {
          "internalType": "bytes4",
          "name": "interfaceId",
          "type": "bytes4"
        }
      ],
      "name": "supportsInterface",
      "outputs": [
        {
          "internalType": "bool",
          "name": "",
          "type": "bool"
        }
      ],
      "payable": false,
      "stateMutability": "view",
      "type": "function"
    },
    {
      "constant": true,
      "inputs": [
        {
          "internalType": "uint256",
          "name": "index",
          "type": "uint256"
        }
      ],
      "name": "tokenByIndex",
      "outputs": [
        {
          "internalType": "uint256",
          "name": "",
          "type": "uint256"
        }
      ],
      "payable": false,
      "stateMutability": "view",
      "type": "function"
    },
    {
      "constant": true,
      "inputs": [
        {
          "internalType": "address",
          "name": "owner",
          "type": "address"
        },
        {
          "internalType": "uint256",
          "name": "index",
          "type": "uint256"
        }
      ],
      "name": "tokenOfOwnerByIndex",
      "outputs": [
        {
          "internalType": "uint256",
          "name": "",
          "type": "uint256"
        }
      ],
      "payable": false,
      "stateMutability": "view",
      "type": "function"
    },
    {
      "constant": true,
      "inputs": [
        {
          "internalType": "uint256",
          "name": "tokenId",
          "type": "uint256"
        }
      ],
      "name": "tokenURI",
      "outputs": [
        {
          "internalType": "string",
          "name": "",
          "type": "string"
        }
      ],
      "payable": false,
      "stateMutability": "view",
      "type": "function"
    },
    {
      "constant": true,
      "inputs": [],
      "name": "totalSupply",
      "outputs": [
        {
          "internalType": "uint256",
          "name": "",
          "type": "uint256"
        }
      ],
      "payable": false,
      "stateMutability": "view",
      "type": "function"
    },
    {
      "constant": false,
      "inputs": [
        {
          "internalType": "address",
          "name": "from",
          "type": "address"
        },
        {
          "internalType": "address",
          "name": "to",
          "type": "address"
        },
        {
          "internalType": "uint256",
          "name": "tokenId",
          "type": "uint256"
        }
      ],
      "name": "transferFrom",
      "outputs": [],
      "payable": false,
      "stateMutability": "nonpayable",
      "type": "function"
    },
    {
      "constant": false,
      "inputs": [
        {
          "internalType": "address",
          "name": "newOwner",
          "type": "address"
        }
      ],
      "name": "transferOwnership",
      "outputs": [],
      "payable": false,
      "stateMutability": "nonpayable",
      "type": "function"
    },
    {
      "constant": true,
      "inputs": [],
      "name": "getSolutionTotal",
      "outputs": [
        {
          "internalType": "uint256",
          "name": "",
          "type": "uint256"
        }
      ],
      "payable": false,
      "stateMutability": "view",
      "type": "function"
    },
    {
      "constant": true,
      "inputs": [
        {
          "components": [
            {
              "components": [
                {
                  "internalType": "uint256",
                  "name": "X",
                  "type": "uint256"
                },
                {
                  "internalType": "uint256",
                  "name": "Y",
                  "type": "uint256"
                }
              ],
              "internalType": "struct Pairing.G1Point",
              "name": "a",
              "type": "tuple"
            },
            {
              "components": [
                {
                  "internalType": "uint256[2]",
                  "name": "X",
                  "type": "uint256[2]"
                },
                {
                  "internalType": "uint256[2]",
                  "name": "Y",
                  "type": "uint256[2]"
                }
              ],
              "internalType": "struct Pairing.G2Point",
              "name": "b",
              "type": "tuple"
            },
            {
              "components": [
                {
                  "internalType": "uint256",
                  "name": "X",
                  "type": "uint256"
                },
                {
                  "internalType": "uint256",
                  "name": "Y",
                  "type": "uint256"
                }
              ],
              "internalType": "struct Pairing.G1Point",
              "name": "c",
              "type": "tuple"
            }
          ],
          "internalType": "struct Verifier.Proof",
          "name": "proof",
          "type": "tuple"
        },
        {
          "internalType": "uint256[2]",
          "name": "input",
          "type": "uint256[2]"
        }
      ],
      "name": "getSolutionKey",
      "outputs": [
        {
          "internalType": "bytes32",
          "name": "",
          "type": "bytes32"
        }
      ],
      "payable": false,
      "stateMutability": "view",
      "type": "function"
    },
    {
      "constant": false,
      "inputs": [
        {
          "internalType": "bytes32",
          "name": "solutionKey",
          "type": "bytes32"
        },
        {
          "internalType": "address",
          "name": "solutionAddress",
          "type": "address"
        }
      ],
      "name": "addSolution",
      "outputs": [],
      "payable": false,
      "stateMutability": "nonpayable",
      "type": "function"
    },
    {
      "constant": false,
      "inputs": [
        {
          "internalType": "address",
          "name": "to",
          "type": "address"
        },
        {
          "internalType": "uint256",
          "name": "tokenId",
          "type": "uint256"
        },
        {
          "components": [
            {
              "components": [
                {
                  "internalType": "uint256",
                  "name": "X",
                  "type": "uint256"
                },
                {
                  "internalType": "uint256",
                  "name": "Y",
                  "type": "uint256"
                }
              ],
              "internalType": "struct Pairing.G1Point",
              "name": "a",
              "type": "tuple"
            },
            {
              "components": [
                {
                  "internalType": "uint256[2]",
                  "name": "X",
                  "type": "uint256[2]"
                },
                {
                  "internalType": "uint256[2]",
                  "name": "Y",
                  "type": "uint256[2]"
                }
              ],
              "internalType": "struct Pairing.G2Point",
              "name": "b",
              "type": "tuple"
            },
            {
              "components": [
                {
                  "internalType": "uint256",
                  "name": "X",
                  "type": "uint256"
                },
                {
                  "internalType": "uint256",
                  "name": "Y",
                  "type": "uint256"
                }
              ],
              "internalType": "struct Pairing.G1Point",
              "name": "c",
              "type": "tuple"
            }
          ],
          "internalType": "struct Verifier.Proof",
          "name": "proof",
          "type": "tuple"
        },
        {
          "internalType": "uint256[2]",
          "name": "input",
          "type": "uint256[2]"
        }
      ],
      "name": "mintNFT",
      "outputs": [],
      "payable": false,
      "stateMutability": "nonpayable",
      "type": "function"
    }
  ],
  "bytecode": "0x608060405260006015553480156200001657600080fd5b50604051620041653803806200416583398181016040526200003c9190810190620003ca565b818181816040518060600160405280603f815260200162004126603f9139336000806101000a81548173ffffffffffffffffffffffffffffffffffffffff021916908373ffffffffffffffffffffffffffffffffffffffff1602179055507f9736aeb40a8f30a5c076a9897428fdf7ec0e909c96dce63533664c9b5c835da66000809054906101000a900473ffffffffffffffffffffffffffffffffffffffff16604051620000ec919062000463565b60405180910390a160008060146101000a81548160ff021916908315150217905550620001266301ffc9a760e01b6200020860201b60201c565b6200013e6380ac58cd60e01b6200020860201b60201c565b6200015663780e9d6360e01b6200020860201b60201c565b82600f90805190602001906200016e929190620002a8565b50816010908051906020019062000187929190620002a8565b508060119080519060200190620001a0929190620002a8565b50620001b9635b5e139f60e01b6200020860201b60201c565b505050505082601360006101000a81548173ffffffffffffffffffffffffffffffffffffffff021916908373ffffffffffffffffffffffffffffffffffffffff1602179055505050506200055f565b63ffffffff60e01b817bffffffffffffffffffffffffffffffffffffffffffffffffffffffff191614156200023c57600080fd5b6001806000837bffffffffffffffffffffffffffffffffffffffffffffffffffffffff19167bffffffffffffffffffffffffffffffffffffffffffffffffffffffff1916815260200190815260200160002060006101000a81548160ff02191690831515021790555050565b828054600181600116156101000203166002900490600052602060002090601f016020900481019282601f10620002eb57805160ff19168380011785556200031c565b828001600101855582156200031c579182015b828111156200031b578251825591602001919060010190620002fe565b5b5090506200032b91906200032f565b5090565b6200035491905b808211156200035057600081600090555060010162000336565b5090565b90565b600081519050620003688162000545565b92915050565b600082601f8301126200038057600080fd5b8151620003976200039182620004ae565b62000480565b91508082526020830160208301858383011115620003b457600080fd5b620003c18382846200050f565b50505092915050565b600080600060608486031215620003e057600080fd5b6000620003f08682870162000357565b935050602084015167ffffffffffffffff8111156200040e57600080fd5b6200041c868287016200036e565b925050604084015167ffffffffffffffff8111156200043a57600080fd5b62000448868287016200036e565b9150509250925092565b6200045d81620004db565b82525050565b60006020820190506200047a600083018462000452565b92915050565b6000604051905081810181811067ffffffffffffffff82111715620004a457600080fd5b8060405250919050565b600067ffffffffffffffff821115620004c657600080fd5b601f19601f8301169050602081019050919050565b6000620004e882620004ef565b9050919050565b600073ffffffffffffffffffffffffffffffffffffffff82169050919050565b60005b838110156200052f57808201518184015260208101905062000512565b838111156200053f576000848401525b50505050565b6200055081620004db565b81146200055c57600080fd5b50565b613bb7806200056f6000396000f3fe608060405234801561001057600080fd5b50600436106101a95760003560e01c806342842e0e116100f9578063b8fc26f311610097578063cdb88ad111610071578063cdb88ad1146104f2578063d3aaceab1461050e578063e985e9c51461052a578063f2fde38b1461055a576101a9565b8063b8fc26f314610486578063bdc32be0146104a4578063c87b56dd146104c2576101a9565b806370a08231116100d357806370a0823114610400578063893d20e814610430578063a22cb4651461044e578063b88d4fde1461046a576101a9565b806342842e0e146103845780634f6ccce7146103a05780636352211e146103d0576101a9565b806318160ddd1161016657806327dc297e1161014057806327dc297e146102ec5780632f745c591461030857806338bbfa501461033857806340c10f1914610354576101a9565b806318160ddd146102965780631fd960da146102b457806323b872dd146102d0576101a9565b806301ffc9a7146101ae57806302b53d66146101de578063081812fc1461020e578063095ea7b31461023e578063150704011461025a57806317d7de7c14610278575b600080fd5b6101c860048036036101c39190810190612df6565b610576565b6040516101d59190613643565b60405180910390f35b6101f860048036036101f39190810190612e48565b6105de565b604051610205919061365e565b60405180910390f35b61022860048036036102239190810190612e86565b610650565b60405161023591906135c1565b60405180910390f35b61025860048036036102539190810190612bf4565b61068d565b005b61026261083a565b60405161026f9190613679565b60405180910390f35b6102806108dc565b60405161028d9190613679565b60405180910390f35b61029e61097e565b6040516102ab9190613846565b60405180910390f35b6102ce60048036036102c99190810190612c30565b61098b565b005b6102ea60048036036102e59190810190612aee565b610ba6565b005b61030660048036036103019190810190612d23565b610bc9565b005b610322600480360361031d9190810190612bf4565b610c0c565b60405161032f9190613846565b60405180910390f35b610352600480360361034d9190810190612d77565b610c7f565b005b61036e60048036036103699190810190612bf4565b610c84565b60405161037b9190613643565b60405180910390f35b61039e60048036036103999190810190612aee565b610d89565b005b6103ba60048036036103b59190810190612e86565b610da9565b6040516103c79190613846565b60405180910390f35b6103ea60048036036103e59190810190612e86565b610ddd565b6040516103f791906135c1565b60405180910390f35b61041a60048036036104159190810190612a89565b610e1a565b6040516104279190613846565b60405180910390f35b610438610e6a565b60405161044591906135c1565b60405180910390f35b61046860048036036104639190810190612bb8565b610e93565b005b610484600480360361047f9190810190612b3d565b610fc9565b005b61048e610fef565b60405161049b9190613846565b60405180910390f35b6104ac610ff9565b6040516104b99190613679565b60405180910390f35b6104dc60048036036104d79190810190612e86565b61109b565b6040516104e99190613679565b60405180910390f35b61050c60048036036105079190810190612c95565b611162565b005b61052860048036036105239190810190612ce7565b6112bb565b005b610544600480360361053f9190810190612ab2565b6113f7565b6040516105519190613643565b60405180910390f35b610574600480360361056f9190810190612a89565b61148b565b005b600060016000837bffffffffffffffffffffffffffffffffffffffffffffffffffffffff19167bffffffffffffffffffffffffffffffffffffffffffffffffffffffff1916815260200190815260200160002060009054906101000a900460ff169050919050565b6000808360000151600001518460000151602001518560200151600001518660200151602001518760400151600001518860400151602001518860405160200161062e9796959493929190613540565b6040516020818303038152906040528051906020012090508091505092915050565b60006003600083815260200190815260200160002060009054906101000a900473ffffffffffffffffffffffffffffffffffffffff169050919050565b600061069882610ddd565b90508073ffffffffffffffffffffffffffffffffffffffff168373ffffffffffffffffffffffffffffffffffffffff161415610709576040517f08c379a00000000000000000000000000000000000000000000000000000000081526004016107009061373b565b60405180910390fd5b8073ffffffffffffffffffffffffffffffffffffffff163373ffffffffffffffffffffffffffffffffffffffff161480610749575061074881336113f7565b5b610788576040517f08c379a000000000000000000000000000000000000000000000000000000000815260040161077f9061377b565b60405180910390fd5b826003600084815260200190815260200160002060006101000a81548173ffffffffffffffffffffffffffffffffffffffff021916908373ffffffffffffffffffffffffffffffffffffffff160217905550818373ffffffffffffffffffffffffffffffffffffffff168273ffffffffffffffffffffffffffffffffffffffff167f8c5be1e5ebec7d5bd14f71427d1e84f3dd0314c0f7b2291e5b200ac8c7c3b92560405160405180910390a4505050565b606060108054600181600116156101000203166002900480601f0160208091040260200160405190810160405280929190818152602001828054600181600116156101000203166002900480156108d25780601f106108a7576101008083540402835291602001916108d2565b820191906000526020600020905b8154815290600101906020018083116108b557829003601f168201915b5050505050905090565b6060600f8054600181600116156101000203166002900480601f0160208091040260200160405190810160405280929190818152602001828054600181600116156101000203166002900480156109745780601f1061094957610100808354040283529160200191610974565b820191906000526020600020905b81548152906001019060200180831161095757829003601f168201915b5050505050905090565b6000600880549050905090565b600061099783836105de565b9050600015156014600083815260200190815260200160002060010160149054906101000a900460ff16151514610a03576040517f08c379a00000000000000000000000000000000000000000000000000000000081526004016109fa906136db565b60405180910390fd5b601360009054906101000a900473ffffffffffffffffffffffffffffffffffffffff1673ffffffffffffffffffffffffffffffffffffffff166343cd76fc84846040518363ffffffff1660e01b8152600401610a6092919061381b565b60206040518083038186803b158015610a7857600080fd5b505afa158015610a8c573d6000803e3d6000fd5b505050506040513d601f19601f82011682018060405250610ab09190810190612cbe565b610aef576040517f08c379a0000000000000000000000000000000000000000000000000000000008152600401610ae6906136fb565b60405180910390fd5b600073ffffffffffffffffffffffffffffffffffffffff166014600083815260200190815260200160002060010160009054906101000a900473ffffffffffffffffffffffffffffffffffffffff1673ffffffffffffffffffffffffffffffffffffffff161415610b6557610b6481336112bb565b5b610b6f8585610c84565b5060016014600083815260200190815260200160002060010160146101000a81548160ff0219169083151502179055505050505050565b610bb08382611604565b610bb957600080fd5b610bc4838383611699565b505050565b610c08828260006040519080825280601f01601f191660200182016040528015610c025781602001600182028038833980820191505090505b50610c7f565b5050565b6000610c1783610e1a565b8210610c2257600080fd5b600660008473ffffffffffffffffffffffffffffffffffffffff1673ffffffffffffffffffffffffffffffffffffffff1681526020019081526020016000208281548110610c6c57fe5b9060005260206000200154905092915050565b505050565b60008060009054906101000a900473ffffffffffffffffffffffffffffffffffffffff1673ffffffffffffffffffffffffffffffffffffffff163373ffffffffffffffffffffffffffffffffffffffff1614610d15576040517f08c379a0000000000000000000000000000000000000000000000000000000008152600401610d0c906137bb565b60405180910390fd5b60001515600060149054906101000a900460ff16151514610d6b576040517f08c379a0000000000000000000000000000000000000000000000000000000008152600401610d629061379b565b60405180910390fd5b610d7583836116bd565b610d7e826116de565b506001905092915050565b610da483838360405180602001604052806000815250610fc9565b505050565b6000610db361097e565b8210610dbe57600080fd5b60088281548110610dcb57fe5b90600052602060002001549050919050565b60006002600083815260200190815260200160002060009054906101000a900473ffffffffffffffffffffffffffffffffffffffff169050919050565b6000610e63600460008473ffffffffffffffffffffffffffffffffffffffff1673ffffffffffffffffffffffffffffffffffffffff168152602001908152602001600020611800565b9050919050565b60008060009054906101000a900473ffffffffffffffffffffffffffffffffffffffff16905090565b3373ffffffffffffffffffffffffffffffffffffffff168273ffffffffffffffffffffffffffffffffffffffff161415610ecc57600080fd5b80600560003373ffffffffffffffffffffffffffffffffffffffff1673ffffffffffffffffffffffffffffffffffffffff16815260200190815260200160002060008473ffffffffffffffffffffffffffffffffffffffff1673ffffffffffffffffffffffffffffffffffffffff16815260200190815260200160002060006101000a81548160ff0219169083151502179055508173ffffffffffffffffffffffffffffffffffffffff163373ffffffffffffffffffffffffffffffffffffffff167f17307eab39ab6107e8899845ad3d59bd9653f200f220920489ca2b5937696c3183604051610fbd9190613643565b60405180910390a35050565b610fd4848484610ba6565b610fe08484848461180e565b610fe957600080fd5b50505050565b6000601554905090565b606060118054600181600116156101000203166002900480601f0160208091040260200160405190810160405280929190818152602001828054600181600116156101000203166002900480156110915780601f1061106657610100808354040283529160200191611091565b820191906000526020600020905b81548152906001019060200180831161107457829003601f168201915b5050505050905090565b60606110a682611925565b6110af57600080fd5b601260008381526020019081526020016000208054600181600116156101000203166002900480601f0160208091040260200160405190810160405280929190818152602001828054600181600116156101000203166002900480156111565780601f1061112b57610100808354040283529160200191611156565b820191906000526020600020905b81548152906001019060200180831161113957829003601f168201915b50505050509050919050565b6000809054906101000a900473ffffffffffffffffffffffffffffffffffffffff1673ffffffffffffffffffffffffffffffffffffffff163373ffffffffffffffffffffffffffffffffffffffff16146111f1576040517f08c379a00000000000000000000000000000000000000000000000000000000081526004016111e8906137bb565b60405180910390fd5b80600060146101000a81548160ff02191690831515021790555060011515600060149054906101000a900460ff1615151415611263577f62e78cea01bee320cd4e420270b5ea74000d11b0c9f74754ebdbfc544b05a2583360405161125691906135dc565b60405180910390a16112b8565b60001515600060149054906101000a900460ff16151514156112b7577f5db9ee0a495bf2e6ff9c91a7834c1ba4fdd244a5e8aa4e537bd38aeae4b073aa336040516112ae91906135dc565b60405180910390a15b5b50565b6015546014600084815260200190815260200160002060000181905550806014600084815260200190815260200160002060010160006101000a81548173ffffffffffffffffffffffffffffffffffffffff021916908373ffffffffffffffffffffffffffffffffffffffff16021790555060006014600084815260200190815260200160002060010160146101000a81548160ff0219169083151502179055507f078793128cefb19aac38a33f9e5df39f67716907f6d747e8065545699e0b2b8d60146000848152602001908152602001600020600001546014600085815260200190815260200160002060010160009054906101000a900473ffffffffffffffffffffffffffffffffffffffff166040516113d9929190613861565b60405180910390a16015600081548092919060010191905055505050565b6000600560008473ffffffffffffffffffffffffffffffffffffffff1673ffffffffffffffffffffffffffffffffffffffff16815260200190815260200160002060008373ffffffffffffffffffffffffffffffffffffffff1673ffffffffffffffffffffffffffffffffffffffff16815260200190815260200160002060009054906101000a900460ff16905092915050565b6000809054906101000a900473ffffffffffffffffffffffffffffffffffffffff1673ffffffffffffffffffffffffffffffffffffffff163373ffffffffffffffffffffffffffffffffffffffff161461151a576040517f08c379a0000000000000000000000000000000000000000000000000000000008152600401611511906137bb565b60405180910390fd5b600073ffffffffffffffffffffffffffffffffffffffff168173ffffffffffffffffffffffffffffffffffffffff16141561158a576040517f08c379a00000000000000000000000000000000000000000000000000000000081526004016115819061371b565b60405180910390fd5b806000806101000a81548173ffffffffffffffffffffffffffffffffffffffff021916908373ffffffffffffffffffffffffffffffffffffffff1602179055507f9736aeb40a8f30a5c076a9897428fdf7ec0e909c96dce63533664c9b5c835da6816040516115f991906135c1565b60405180910390a150565b60008061161083610ddd565b90508073ffffffffffffffffffffffffffffffffffffffff168473ffffffffffffffffffffffffffffffffffffffff16148061167f57508373ffffffffffffffffffffffffffffffffffffffff1661166784610650565b73ffffffffffffffffffffffffffffffffffffffff16145b80611690575061168f81856113f7565b5b91505092915050565b6116a4838383611997565b6116ae8382611bc6565b6116b88282611d64565b505050565b6116c78282611e2b565b6116d18282611d64565b6116da81612036565b5050565b60606116e982611925565b611728576040517f08c379a000000000000000000000000000000000000000000000000000000000815260040161171f9061369b565b60405180910390fd5b6117d460118054600181600116156101000203166002900480601f0160208091040260200160405190810160405280929190818152602001828054600181600116156101000203166002900480156117c15780601f10611796576101008083540402835291602001916117c1565b820191906000526020600020905b8154815290600101906020018083116117a457829003601f168201915b50505050506117cf84612082565b6121af565b6012600084815260200190815260200160002090805190602001906117fa92919061269c565b50919050565b600081600001549050919050565b600061182f8473ffffffffffffffffffffffffffffffffffffffff166121f3565b61183c576001905061191d565b60008473ffffffffffffffffffffffffffffffffffffffff1663150b7a02338887876040518563ffffffff1660e01b815260040161187d94939291906135f7565b602060405180830381600087803b15801561189757600080fd5b505af11580156118ab573d6000803e3d6000fd5b505050506040513d601f19601f820116820180604052506118cf9190810190612e1f565b905063150b7a0260e01b7bffffffffffffffffffffffffffffffffffffffffffffffffffffffff1916817bffffffffffffffffffffffffffffffffffffffffffffffffffffffff1916149150505b949350505050565b6000806002600084815260200190815260200160002060009054906101000a900473ffffffffffffffffffffffffffffffffffffffff169050600073ffffffffffffffffffffffffffffffffffffffff168173ffffffffffffffffffffffffffffffffffffffff161415915050919050565b6119a081610ddd565b73ffffffffffffffffffffffffffffffffffffffff168373ffffffffffffffffffffffffffffffffffffffff1614611a0d576040517f08c379a0000000000000000000000000000000000000000000000000000000008152600401611a04906137fb565b60405180910390fd5b600073ffffffffffffffffffffffffffffffffffffffff168273ffffffffffffffffffffffffffffffffffffffff161415611a7d576040517f08c379a0000000000000000000000000000000000000000000000000000000008152600401611a74906137db565b60405180910390fd5b611a868161223e565b611acd600460008573ffffffffffffffffffffffffffffffffffffffff1673ffffffffffffffffffffffffffffffffffffffff1681526020019081526020016000206122fc565b611b14600460008473ffffffffffffffffffffffffffffffffffffffff1673ffffffffffffffffffffffffffffffffffffffff16815260200190815260200160002061231f565b816002600083815260200190815260200160002060006101000a81548173ffffffffffffffffffffffffffffffffffffffff021916908373ffffffffffffffffffffffffffffffffffffffff160217905550808273ffffffffffffffffffffffffffffffffffffffff168473ffffffffffffffffffffffffffffffffffffffff167fddf252ad1be2c89b69c2b068fc378daa952ba7f163c4a11628f55a4df523b3ef60405160405180910390a4505050565b6000611c1e6001600660008673ffffffffffffffffffffffffffffffffffffffff1673ffffffffffffffffffffffffffffffffffffffff1681526020019081526020016000208054905061233590919063ffffffff16565b9050600060076000848152602001908152602001600020549050818114611d0b576000600660008673ffffffffffffffffffffffffffffffffffffffff1673ffffffffffffffffffffffffffffffffffffffff1681526020019081526020016000208381548110611c8b57fe5b9060005260206000200154905080600660008773ffffffffffffffffffffffffffffffffffffffff1673ffffffffffffffffffffffffffffffffffffffff1681526020019081526020016000208381548110611ce357fe5b9060005260206000200181905550816007600083815260200190815260200160002081905550505b600660008573ffffffffffffffffffffffffffffffffffffffff1673ffffffffffffffffffffffffffffffffffffffff168152602001908152602001600020805480919060019003611d5d919061271c565b5050505050565b600660008373ffffffffffffffffffffffffffffffffffffffff1673ffffffffffffffffffffffffffffffffffffffff168152602001908152602001600020805490506007600083815260200190815260200160002081905550600660008373ffffffffffffffffffffffffffffffffffffffff1673ffffffffffffffffffffffffffffffffffffffff1681526020019081526020016000208190806001815401808255809150509060018203906000526020600020016000909192909190915055505050565b600073ffffffffffffffffffffffffffffffffffffffff166002600083815260200190815260200160002060009054906101000a900473ffffffffffffffffffffffffffffffffffffffff1673ffffffffffffffffffffffffffffffffffffffff1614611ecd576040517f08c379a0000000000000000000000000000000000000000000000000000000008152600401611ec4906136bb565b60405180910390fd5b600073ffffffffffffffffffffffffffffffffffffffff168273ffffffffffffffffffffffffffffffffffffffff161415611f3d576040517f08c379a0000000000000000000000000000000000000000000000000000000008152600401611f349061375b565b60405180910390fd5b816002600083815260200190815260200160002060006101000a81548173ffffffffffffffffffffffffffffffffffffffff021916908373ffffffffffffffffffffffffffffffffffffffff160217905550611fd6600460008473ffffffffffffffffffffffffffffffffffffffff1673ffffffffffffffffffffffffffffffffffffffff16815260200190815260200160002061231f565b808273ffffffffffffffffffffffffffffffffffffffff16600073ffffffffffffffffffffffffffffffffffffffff167fddf252ad1be2c89b69c2b068fc378daa952ba7f163c4a11628f55a4df523b3ef60405160405180910390a45050565b6008805490506009600083815260200190815260200160002081905550600881908060018154018082558091505090600182039060005260206000200160009091929091909150555050565b606060008214156120ca576040518060400160405280600181526020017f300000000000000000000000000000000000000000000000000000000000000081525090506121aa565b600082905060005b600082146120f4578080600101915050600a82816120ec57fe5b0491506120d2565b6060816040519080825280601f01601f1916602001820160405280156121295781602001600182028038833980820191505090505b50905060006001830390505b600086146121a257600a868161214757fe5b0660300160f81b8282806001900393508151811061216157fe5b60200101907effffffffffffffffffffffffffffffffffffffffffffffffffffffffffffff1916908160001a905350600a868161219a57fe5b049550612135565b819450505050505b919050565b60606121eb838360405180602001604052806000815250604051806020016040528060008152506040518060200160405280600081525061237f565b905092915050565b60008060007fc5d2460186f7233c927e7db2dcc703c0e500b653ca82273b7bfad8045d85a47060001b9050833f915080821415801561223557506000801b8214155b92505050919050565b600073ffffffffffffffffffffffffffffffffffffffff166003600083815260200190815260200160002060009054906101000a900473ffffffffffffffffffffffffffffffffffffffff1673ffffffffffffffffffffffffffffffffffffffff16146122f95760006003600083815260200190815260200160002060006101000a81548173ffffffffffffffffffffffffffffffffffffffff021916908373ffffffffffffffffffffffffffffffffffffffff1602179055505b50565b6123146001826000015461233590919063ffffffff16565b816000018190555050565b6001816000016000828254019250508190555050565b600061237783836040518060400160405280601e81526020017f536166654d6174683a207375627472616374696f6e206f766572666c6f770000815250612641565b905092915050565b6060808690506060869050606086905060608690506060869050606081518351855187518951010101016040519080825280601f01601f1916602001820160405280156123db5781602001600182028038833980820191505090505b509050606081905060008090506000809050600090505b88518110156124605788818151811061240757fe5b602001015160f81c60f81b83838060010194508151811061242457fe5b60200101907effffffffffffffffffffffffffffffffffffffffffffffffffffffffffffff1916908160001a90535080806001019150506123f2565b600090505b87518110156124d35787818151811061247a57fe5b602001015160f81c60f81b83838060010194508151811061249757fe5b60200101907effffffffffffffffffffffffffffffffffffffffffffffffffffffffffffff1916908160001a9053508080600101915050612465565b600090505b8651811015612546578681815181106124ed57fe5b602001015160f81c60f81b83838060010194508151811061250a57fe5b60200101907effffffffffffffffffffffffffffffffffffffffffffffffffffffffffffff1916908160001a90535080806001019150506124d8565b600090505b85518110156125b95785818151811061256057fe5b602001015160f81c60f81b83838060010194508151811061257d57fe5b60200101907effffffffffffffffffffffffffffffffffffffffffffffffffffffffffffff1916908160001a905350808060010191505061254b565b600090505b845181101561262c578481815181106125d357fe5b602001015160f81c60f81b8383806001019450815181106125f057fe5b60200101907effffffffffffffffffffffffffffffffffffffffffffffffffffffffffffff1916908160001a90535080806001019150506125be565b82995050505050505050505095945050505050565b6000838311158290612689576040517f08c379a00000000000000000000000000000000000000000000000000000000081526004016126809190613679565b60405180910390fd5b5060008385039050809150509392505050565b828054600181600116156101000203166002900490600052602060002090601f016020900481019282601f106126dd57805160ff191683800117855561270b565b8280016001018555821561270b579182015b8281111561270a5782518255916020019190600101906126ef565b5b5090506127189190612748565b5090565b815481835581811115612743578183600052602060002091820191016127429190612748565b5b505050565b61276a91905b8082111561276657600081600090555060010161274e565b5090565b90565b60008135905061277c81613b01565b92915050565b600082601f83011261279357600080fd5b60026127a66127a1826138b7565b61388a565b915081838560208402820111156127bc57600080fd5b60005b838110156127ec57816127d28882612a74565b8452602084019350602083019250506001810190506127bf565b5050505092915050565b600082601f83011261280757600080fd5b600261281a612815826138d9565b61388a565b9150818385602084028201111561283057600080fd5b60005b8381101561286057816128468882612a74565b845260208401935060208301925050600181019050612833565b5050505092915050565b60008135905061287981613b18565b92915050565b60008151905061288e81613b18565b92915050565b6000813590506128a381613b2f565b92915050565b6000813590506128b881613b46565b92915050565b6000815190506128cd81613b46565b92915050565b600082601f8301126128e457600080fd5b81356128f76128f2826138fb565b61388a565b9150808252602083016020830185838301111561291357600080fd5b61291e838284613aa4565b50505092915050565b600082601f83011261293857600080fd5b813561294b61294682613927565b61388a565b9150808252602083016020830185838301111561296757600080fd5b612972838284613aa4565b50505092915050565b60006040828403121561298d57600080fd5b612997604061388a565b905060006129a784828501612a74565b60008301525060206129bb84828501612a74565b60208301525092915050565b6000608082840312156129d957600080fd5b6129e3604061388a565b905060006129f384828501612782565b6000830152506040612a0784828501612782565b60208301525092915050565b60006101008284031215612a2657600080fd5b612a30606061388a565b90506000612a408482850161297b565b6000830152506040612a54848285016129c7565b60208301525060c0612a688482850161297b565b60408301525092915050565b600081359050612a8381613b5d565b92915050565b600060208284031215612a9b57600080fd5b6000612aa98482850161276d565b91505092915050565b60008060408385031215612ac557600080fd5b6000612ad38582860161276d565b9250506020612ae48582860161276d565b9150509250929050565b600080600060608486031215612b0357600080fd5b6000612b118682870161276d565b9350506020612b228682870161276d565b9250506040612b3386828701612a74565b9150509250925092565b60008060008060808587031215612b5357600080fd5b6000612b618782880161276d565b9450506020612b728782880161276d565b9350506040612b8387828801612a74565b925050606085013567ffffffffffffffff811115612ba057600080fd5b612bac878288016128d3565b91505092959194509250565b60008060408385031215612bcb57600080fd5b6000612bd98582860161276d565b9250506020612bea8582860161286a565b9150509250929050565b60008060408385031215612c0757600080fd5b6000612c158582860161276d565b9250506020612c2685828601612a74565b9150509250929050565b6000806000806101808587031215612c4757600080fd5b6000612c558782880161276d565b9450506020612c6687828801612a74565b9350506040612c7787828801612a13565b925050610140612c89878288016127f6565b91505092959194509250565b600060208284031215612ca757600080fd5b6000612cb58482850161286a565b91505092915050565b600060208284031215612cd057600080fd5b6000612cde8482850161287f565b91505092915050565b60008060408385031215612cfa57600080fd5b6000612d0885828601612894565b9250506020612d198582860161276d565b9150509250929050565b60008060408385031215612d3657600080fd5b6000612d4485828601612894565b925050602083013567ffffffffffffffff811115612d6157600080fd5b612d6d85828601612927565b9150509250929050565b600080600060608486031215612d8c57600080fd5b6000612d9a86828701612894565b935050602084013567ffffffffffffffff811115612db757600080fd5b612dc386828701612927565b925050604084013567ffffffffffffffff811115612de057600080fd5b612dec868287016128d3565b9150509250925092565b600060208284031215612e0857600080fd5b6000612e16848285016128a9565b91505092915050565b600060208284031215612e3157600080fd5b6000612e3f848285016128be565b91505092915050565b6000806101408385031215612e5c57600080fd5b6000612e6a85828601612a13565b925050610100612e7c858286016127f6565b9150509250929050565b600060208284031215612e9857600080fd5b6000612ea684828501612a74565b91505092915050565b6000612ebb83836134fc565b60208301905092915050565b6000612ed3838361351a565b60208301905092915050565b612ee881613a6e565b82525050565b612ef7816139f0565b82525050565b612f0681613972565b612f1081846139b8565b9250612f1b8261395d565b8060005b83811015612f4c578151612f338782612eaf565b9650612f3e836139a0565b925050600181019050612f1f565b505050505050565b612f5d81613972565b612f6781846139c3565b9250612f728261395d565b8060005b83811015612fa3578151612f8a8782612ec7565b9650612f95836139a0565b925050600181019050612f76565b505050505050565b612fb481613967565b612fbe81846139ad565b9250612fc982613953565b8060005b83811015612ffa578151612fe18782612eaf565b9650612fec83613993565b925050600181019050612fcd565b505050505050565b61300b81613967565b61301581846139c3565b925061302082613953565b8060005b838110156130515781516130388782612ec7565b965061304383613993565b925050600181019050613024565b505050505050565b61306281613a02565b82525050565b61307181613a0e565b82525050565b60006130828261397d565b61308c81856139ce565b935061309c818560208601613ab3565b6130a581613af0565b840191505092915050565b60006130bb82613988565b6130c581856139df565b93506130d5818560208601613ab3565b6130de81613af0565b840191505092915050565b60006130f66013836139df565b91507f546f6b656e20646f65736e2774206578697374000000000000000000000000006000830152602082019050919050565b60006131366013836139df565b91507f546f6b656e20616c7265616479206578697374000000000000000000000000006000830152602082019050919050565b60006131766015836139df565b91507f536f6c7574696f6e20616c7265616479207573656400000000000000000000006000830152602082019050919050565b60006131b66015836139df565b91507f50726f6f66207761736e277420766572696669656400000000000000000000006000830152602082019050919050565b60006131f66023836139df565b91507f41646472657373206f66206e6577206f776e6572206e6f74207265636f676e6960008301527f7a656400000000000000000000000000000000000000000000000000000000006020830152604082019050919050565b600061325c6027836139df565b91507f416464726573732063616e277420626520746865206f776e6572206f6620746860008301527f6520746f6b656e000000000000000000000000000000000000000000000000006020830152604082019050919050565b60006132c26019836139df565b91507f496e76616c696420726563657069656e742061646472657373000000000000006000830152602082019050919050565b60006133026015836139df565b91507f53656e6465722069736e277420617070726f76656400000000000000000000006000830152602082019050919050565b60006133426012836139df565b91507f436f6e74726163742069732070617573656400000000000000000000000000006000830152602082019050919050565b60006133826017836139df565b91507f5265717565737465722069736e277420616c6c6f7765640000000000000000006000830152602082019050919050565b60006133c2601c836139df565b91507f526563657069656e74206164647265737320697320696e76616c6964000000006000830152602082019050919050565b60006134026023836139df565b91507f53656e6465722069736e277420746865206f776e6572206f662074686520746f60008301527f6b656e00000000000000000000000000000000000000000000000000000000006020830152604082019050919050565b60408201600082015161347160008501826134fc565b50602082015161348460208501826134fc565b50505050565b6080820160008201516134a06000850182612fab565b5060208201516134b36040850182612fab565b50505050565b610100820160008201516134d0600085018261345b565b5060208201516134e3604085018261348a565b5060408201516134f660c085018261345b565b50505050565b61350581613a64565b82525050565b61351481613a64565b82525050565b61352381613a64565b82525050565b61353a61353582613a64565b613ae6565b82525050565b600061354c828a613529565b60208201915061355c8289613529565b60208201915061356c8288613002565b60408201915061357c8287613002565b60408201915061358c8286613529565b60208201915061359c8285613529565b6020820191506135ac8284612f54565b60408201915081905098975050505050505050565b60006020820190506135d66000830184612eee565b92915050565b60006020820190506135f16000830184612edf565b92915050565b600060808201905061360c6000830187612edf565b6136196020830186612eee565b613626604083018561350b565b81810360608301526136388184613077565b905095945050505050565b60006020820190506136586000830184613059565b92915050565b60006020820190506136736000830184613068565b92915050565b6000602082019050818103600083015261369381846130b0565b905092915050565b600060208201905081810360008301526136b4816130e9565b9050919050565b600060208201905081810360008301526136d481613129565b9050919050565b600060208201905081810360008301526136f481613169565b9050919050565b60006020820190508181036000830152613714816131a9565b9050919050565b60006020820190508181036000830152613734816131e9565b9050919050565b600060208201905081810360008301526137548161324f565b9050919050565b60006020820190508181036000830152613774816132b5565b9050919050565b60006020820190508181036000830152613794816132f5565b9050919050565b600060208201905081810360008301526137b481613335565b9050919050565b600060208201905081810360008301526137d481613375565b9050919050565b600060208201905081810360008301526137f4816133b5565b9050919050565b60006020820190508181036000830152613814816133f5565b9050919050565b60006101408201905061383160008301856134b9565b61383f610100830184612efd565b9392505050565b600060208201905061385b600083018461350b565b92915050565b6000604082019050613876600083018561350b565b6138836020830184612eee565b9392505050565b6000604051905081810181811067ffffffffffffffff821117156138ad57600080fd5b8060405250919050565b600067ffffffffffffffff8211156138ce57600080fd5b602082029050919050565b600067ffffffffffffffff8211156138f057600080fd5b602082029050919050565b600067ffffffffffffffff82111561391257600080fd5b601f19601f8301169050602081019050919050565b600067ffffffffffffffff82111561393e57600080fd5b601f19601f8301169050602081019050919050565b6000819050919050565b6000819050919050565b600060029050919050565b600060029050919050565b600081519050919050565b600081519050919050565b6000602082019050919050565b6000602082019050919050565b600081905092915050565b600081905092915050565b600081905092915050565b600082825260208201905092915050565b600082825260208201905092915050565b60006139fb82613a44565b9050919050565b60008115159050919050565b6000819050919050565b60007fffffffff0000000000000000000000000000000000000000000000000000000082169050919050565b600073ffffffffffffffffffffffffffffffffffffffff82169050919050565b6000819050919050565b6000613a7982613a80565b9050919050565b6000613a8b82613a92565b9050919050565b6000613a9d82613a44565b9050919050565b82818337600083830152505050565b60005b83811015613ad1578082015181840152602081019050613ab6565b83811115613ae0576000848401525b50505050565b6000819050919050565b6000601f19601f8301169050919050565b613b0a816139f0565b8114613b1557600080fd5b50565b613b2181613a02565b8114613b2c57600080fd5b50565b613b3881613a0e565b8114613b4357600080fd5b50565b613b4f81613a18565b8114613b5a57600080fd5b50565b613b6681613a64565b8114613b7157600080fd5b5056fea365627a7a723158203e6761a4d7384755f89ab91a931c09d33f484b74a8d8b7dc511454bc57dd8cf66c6578706572696d656e74616cf564736f6c6343000510004068747470733a2f2f73332d75732d776573742d322e616d617a6f6e6177732e636f6d2f756461636974792d626c6f636b636861696e2f63617073746f6e652f",
  "source": "pragma solidity >=0.4.21 <0.6.0;\npragma experimental ABIEncoderV2;\n\n// TODO define a contract call to the zokrates generated solidity contract <Verifier> or <renamedVerifier>\nimport \"./Verifier.sol\";\nimport \"./ERC721MintableComplete.sol\";\n\n// contract Verifier {\n//     function verifyTx(Proof memory proof, uint[2] memory input) public view returns (bool r);\n// }\n\n// TODO define another contract named SolnSquareVerifier that inherits from your ERC721Mintable class\ncontract SolnSquareVerifier is ERC721MintableComplete {\n    Verifier private verifier;\n\n    // TODO define a solutions struct that can hold an index & an address\n    struct Solution {\n        uint256 solutionIndex;\n        address solutionAddress;\n        bool minted;\n    }\n\n    // TODO define an array of the above struct\n    // Solution[] private solution;\n\n    // TODO define a mapping to store unique solutions submitted\n    mapping(bytes32 => Solution) solutions;\n    uint256 solutionTotal = 0;\n\n    // TODO Create an event to emit when a solution is added\n    event SolutionAdded(uint256 newSolutionIndex, address newSolutionAddress);\n\n    // TODO Create a function to add the solutions to the array and emit the event\n\n    constructor(address verifierAddress, string memory name, string memory symbol) ERC721MintableComplete(name, symbol) public {\n        verifier = Verifier(verifierAddress);\n    }\n\n    function getSolutionTotal() public view returns (uint256) {\n        return solutionTotal;\n    }\n\n    function getSolutionKey(Verifier.Proof memory proof, uint[2] memory input) public view returns (bytes32) {\n        bytes32 solutionKey = keccak256(abi.encodePacked(proof.a.X, proof.a.Y, proof.b.X, proof.b.Y, proof.c.X, proof.c.Y, input));\n        return solutionKey;\n    }\n\n    function addSolution(bytes32 solutionKey, address solutionAddress) public {\n        solutions[solutionKey].solutionIndex = solutionTotal;\n        solutions[solutionKey].solutionAddress = solutionAddress;\n        solutions[solutionKey].minted = false;\n\n        emit SolutionAdded(solutions[solutionKey].solutionIndex, solutions[solutionKey].solutionAddress);\n        solutionTotal++;\n    }\n\n    // TODO Create a function to mint new NFT only after the solution has been verified\n    //  - make sure the solution is unique (has not been used before)\n    //  - make sure you handle metadata as well as tokenSuplly\n    function mintNFT(address to, uint256 tokenId, Verifier.Proof memory proof, uint[2] memory input) public {\n        bytes32 solutionKey = getSolutionKey(proof, input);\n        require(solutions[solutionKey].minted == false, \"Solution already used\");\n        require(verifier.verifyTx(proof, input), \"Proof wasn't verified\");\n\n        if (solutions[solutionKey].solutionAddress == address(0x0)) {\n            addSolution(solutionKey, msg.sender);\n        }\n        mint(to, tokenId);\n        solutions[solutionKey].minted = true;\n    }\n}",
  "sourcePath": "/Users/jay/dev/dapp-housing-nft/eth-contracts/contracts/SolnSquareVerifier.sol",
  "compiler": {
    "name": "solc",
    "version": "0.5.16+commit.9c3226ce.Emscripten.clang"
  },
  "schemaVersion": "3.4.4",
  "updatedAt": "2022-01-09T05:38:10.723Z",
  "networkType": "ethereum",
  "devdoc": {
    "methods": {
      "isApprovedForAll(address,address)": {
        "details": "Tells whether an operator is approved by a given owner",
        "params": {
          "operator": "operator address which you want to query the approval of",
          "owner": "owner address which you want to query the approval of"
        },
        "return": "bool whether the given operator is approved by the given owner"
      },
      "setApprovalForAll(address,bool)": {
        "details": "Sets or unsets the approval of a given operator An operator is allowed to transfer all tokens of the sender on their behalf",
        "params": {
          "approved": "representing the status of the approval to be set",
          "to": "operator address to set the approval"
        }
      },
      "supportsInterface(bytes4)": {
        "details": "implement supportsInterface(bytes4) using a lookup table"
      },
      "tokenByIndex(uint256)": {
        "details": "Gets the token ID at a given index of all the tokens in this contract Reverts if the index is greater or equal to the total number of tokens",
        "params": {
          "index": "uint256 representing the index to be accessed of the tokens list"
        },
        "return": "uint256 token ID at the given index of the tokens list"
      },
      "tokenOfOwnerByIndex(address,uint256)": {
        "details": "Gets the token ID at a given index of the tokens list of the requested owner",
        "params": {
          "index": "uint256 representing the index to be accessed of the requested tokens list",
          "owner": "address owning the tokens list to be accessed"
        },
        "return": "uint256 token ID at the given index of the tokens list owned by the requested address"
      },
      "totalSupply()": {
        "details": "Gets the total amount of tokens stored by the contract",
        "return": "uint256 representing the total amount of tokens"
      }
    }
  },
  "userdoc": {
    "methods": {}
  }
}