{
  "contractName": "SolnSquareVerifier",
  "abi": [
    {
      "inputs": [
        {
          "internalType": "address",
          "name": "verifierAddress",
          "type": "address"
        },
        {
          "internalType": "string",
          "name": "name",
          "type": "string"
        },
        {
          "internalType": "string",
          "name": "symbol",
          "type": "string"
        }
      ],
      "payable": false,
      "stateMutability": "nonpayable",
      "type": "constructor"
    },
    {
      "anonymous": false,
      "inputs": [
        {
          "indexed": true,
          "internalType": "address",
          "name": "owner",
          "type": "address"
        },
        {
          "indexed": true,
          "internalType": "address",
          "name": "approved",
          "type": "address"
        },
        {
          "indexed": true,
          "internalType": "uint256",
          "name": "tokenId",
          "type": "uint256"
        }
      ],
      "name": "Approval",
      "type": "event"
    },
    {
      "anonymous": false,
      "inputs": [
        {
          "indexed": true,
          "internalType": "address",
          "name": "owner",
          "type": "address"
        },
        {
          "indexed": true,
          "internalType": "address",
          "name": "operator",
          "type": "address"
        },
        {
          "indexed": false,
          "internalType": "bool",
          "name": "approved",
          "type": "bool"
        }
      ],
      "name": "ApprovalForAll",
      "type": "event"
    },
    {
      "anonymous": false,
      "inputs": [
        {
          "indexed": false,
          "internalType": "address",
          "name": "newOwner",
          "type": "address"
        }
      ],
      "name": "OwnershipTransfered",
      "type": "event"
    },
    {
      "anonymous": false,
      "inputs": [
        {
          "indexed": false,
          "internalType": "address",
          "name": "owner",
          "type": "address"
        }
      ],
      "name": "Paused",
      "type": "event"
    },
    {
      "anonymous": false,
      "inputs": [
        {
          "indexed": false,
          "internalType": "uint256",
          "name": "newSolutionIndex",
          "type": "uint256"
        },
        {
          "indexed": false,
          "internalType": "address",
          "name": "newSolutionAddress",
          "type": "address"
        }
      ],
      "name": "SolutionAdded",
      "type": "event"
    },
    {
      "anonymous": false,
      "inputs": [
        {
          "indexed": true,
          "internalType": "address",
          "name": "from",
          "type": "address"
        },
        {
          "indexed": true,
          "internalType": "address",
          "name": "to",
          "type": "address"
        },
        {
          "indexed": true,
          "internalType": "uint256",
          "name": "tokenId",
          "type": "uint256"
        }
      ],
      "name": "Transfer",
      "type": "event"
    },
    {
      "anonymous": false,
      "inputs": [
        {
          "indexed": false,
          "internalType": "address",
          "name": "owner",
          "type": "address"
        }
      ],
      "name": "Unpaused",
      "type": "event"
    },
    {
      "constant": false,
      "inputs": [
        {
          "internalType": "bytes32",
          "name": "_myid",
          "type": "bytes32"
        },
        {
          "internalType": "string",
          "name": "_result",
          "type": "string"
        }
      ],
      "name": "__callback",
      "outputs": [],
      "payable": false,
      "stateMutability": "nonpayable",
      "type": "function"
    },
    {
      "constant": false,
      "inputs": [
        {
          "internalType": "bytes32",
          "name": "_myid",
          "type": "bytes32"
        },
        {
          "internalType": "string",
          "name": "_result",
          "type": "string"
        },
        {
          "internalType": "bytes",
          "name": "_proof",
          "type": "bytes"
        }
      ],
      "name": "__callback",
      "outputs": [],
      "payable": false,
      "stateMutability": "nonpayable",
      "type": "function"
    },
    {
      "constant": false,
      "inputs": [
        {
          "internalType": "address",
          "name": "to",
          "type": "address"
        },
        {
          "internalType": "uint256",
          "name": "tokenId",
          "type": "uint256"
        }
      ],
      "name": "approve",
      "outputs": [],
      "payable": false,
      "stateMutability": "nonpayable",
      "type": "function"
    },
    {
      "constant": true,
      "inputs": [
        {
          "internalType": "address",
          "name": "owner",
          "type": "address"
        }
      ],
      "name": "balanceOf",
      "outputs": [
        {
          "internalType": "uint256",
          "name": "",
          "type": "uint256"
        }
      ],
      "payable": false,
      "stateMutability": "view",
      "type": "function"
    },
    {
      "constant": true,
      "inputs": [
        {
          "internalType": "uint256",
          "name": "tokenId",
          "type": "uint256"
        }
      ],
      "name": "getApproved",
      "outputs": [
        {
          "internalType": "address",
          "name": "",
          "type": "address"
        }
      ],
      "payable": false,
      "stateMutability": "view",
      "type": "function"
    },
    {
      "constant": true,
      "inputs": [],
      "name": "getBaseTokenURI",
      "outputs": [
        {
          "internalType": "string",
          "name": "",
          "type": "string"
        }
      ],
      "payable": false,
      "stateMutability": "view",
      "type": "function"
    },
    {
      "constant": true,
      "inputs": [],
      "name": "getName",
      "outputs": [
        {
          "internalType": "string",
          "name": "",
          "type": "string"
        }
      ],
      "payable": false,
      "stateMutability": "view",
      "type": "function"
    },
    {
      "constant": true,
      "inputs": [],
      "name": "getOwner",
      "outputs": [
        {
          "internalType": "address",
          "name": "",
          "type": "address"
        }
      ],
      "payable": false,
      "stateMutability": "view",
      "type": "function"
    },
    {
      "constant": true,
      "inputs": [],
      "name": "getSymbol",
      "outputs": [
        {
          "internalType": "string",
          "name": "",
          "type": "string"
        }
      ],
      "payable": false,
      "stateMutability": "view",
      "type": "function"
    },
    {
      "constant": true,
      "inputs": [
        {
          "internalType": "address",
          "name": "owner",
          "type": "address"
        },
        {
          "internalType": "address",
          "name": "operator",
          "type": "address"
        }
      ],
      "name": "isApprovedForAll",
      "outputs": [
        {
          "internalType": "bool",
          "name": "",
          "type": "bool"
        }
      ],
      "payable": false,
      "stateMutability": "view",
      "type": "function"
    },
    {
      "constant": true,
      "inputs": [
        {
          "internalType": "uint256",
          "name": "tokenId",
          "type": "uint256"
        }
      ],
      "name": "ownerOf",
      "outputs": [
        {
          "internalType": "address",
          "name": "",
          "type": "address"
        }
      ],
      "payable": false,
      "stateMutability": "view",
      "type": "function"
    },
    {
      "constant": false,
      "inputs": [
        {
          "internalType": "address",
          "name": "from",
          "type": "address"
        },
        {
          "internalType": "address",
          "name": "to",
          "type": "address"
        },
        {
          "internalType": "uint256",
          "name": "tokenId",
          "type": "uint256"
        }
      ],
      "name": "safeTransferFrom",
      "outputs": [],
      "payable": false,
      "stateMutability": "nonpayable",
      "type": "function"
    },
    {
      "constant": false,
      "inputs": [
        {
          "internalType": "address",
          "name": "from",
          "type": "address"
        },
        {
          "internalType": "address",
          "name": "to",
          "type": "address"
        },
        {
          "internalType": "uint256",
          "name": "tokenId",
          "type": "uint256"
        },
        {
          "internalType": "bytes",
          "name": "_data",
          "type": "bytes"
        }
      ],
      "name": "safeTransferFrom",
      "outputs": [],
      "payable": false,
      "stateMutability": "nonpayable",
      "type": "function"
    },
    {
      "constant": false,
      "inputs": [
        {
          "internalType": "address",
          "name": "to",
          "type": "address"
        },
        {
          "internalType": "bool",
          "name": "approved",
          "type": "bool"
        }
      ],
      "name": "setApprovalForAll",
      "outputs": [],
      "payable": false,
      "stateMutability": "nonpayable",
      "type": "function"
    },
    {
      "constant": false,
      "inputs": [
        {
          "internalType": "bool",
          "name": "newState",
          "type": "bool"
        }
      ],
      "name": "setPauseState",
      "outputs": [],
      "payable": false,
      "stateMutability": "nonpayable",
      "type": "function"
    },
    {
      "constant": true,
      "inputs": [
        {
          "internalType": "bytes4",
          "name": "interfaceId",
          "type": "bytes4"
        }
      ],
      "name": "supportsInterface",
      "outputs": [
        {
          "internalType": "bool",
          "name": "",
          "type": "bool"
        }
      ],
      "payable": false,
      "stateMutability": "view",
      "type": "function"
    },
    {
      "constant": true,
      "inputs": [
        {
          "internalType": "uint256",
          "name": "index",
          "type": "uint256"
        }
      ],
      "name": "tokenByIndex",
      "outputs": [
        {
          "internalType": "uint256",
          "name": "",
          "type": "uint256"
        }
      ],
      "payable": false,
      "stateMutability": "view",
      "type": "function"
    },
    {
      "constant": true,
      "inputs": [
        {
          "internalType": "address",
          "name": "owner",
          "type": "address"
        },
        {
          "internalType": "uint256",
          "name": "index",
          "type": "uint256"
        }
      ],
      "name": "tokenOfOwnerByIndex",
      "outputs": [
        {
          "internalType": "uint256",
          "name": "",
          "type": "uint256"
        }
      ],
      "payable": false,
      "stateMutability": "view",
      "type": "function"
    },
    {
      "constant": true,
      "inputs": [
        {
          "internalType": "uint256",
          "name": "tokenId",
          "type": "uint256"
        }
      ],
      "name": "tokenURI",
      "outputs": [
        {
          "internalType": "string",
          "name": "",
          "type": "string"
        }
      ],
      "payable": false,
      "stateMutability": "view",
      "type": "function"
    },
    {
      "constant": true,
      "inputs": [],
      "name": "totalSupply",
      "outputs": [
        {
          "internalType": "uint256",
          "name": "",
          "type": "uint256"
        }
      ],
      "payable": false,
      "stateMutability": "view",
      "type": "function"
    },
    {
      "constant": false,
      "inputs": [
        {
          "internalType": "address",
          "name": "from",
          "type": "address"
        },
        {
          "internalType": "address",
          "name": "to",
          "type": "address"
        },
        {
          "internalType": "uint256",
          "name": "tokenId",
          "type": "uint256"
        }
      ],
      "name": "transferFrom",
      "outputs": [],
      "payable": false,
      "stateMutability": "nonpayable",
      "type": "function"
    },
    {
      "constant": false,
      "inputs": [
        {
          "internalType": "address",
          "name": "newOwner",
          "type": "address"
        }
      ],
      "name": "transferOwnership",
      "outputs": [],
      "payable": false,
      "stateMutability": "nonpayable",
      "type": "function"
    },
    {
      "constant": false,
      "inputs": [
        {
          "internalType": "bytes32",
          "name": "solutionKey",
          "type": "bytes32"
        },
        {
          "internalType": "address",
          "name": "solutionAddress",
          "type": "address"
        }
      ],
      "name": "addSolution",
      "outputs": [],
      "payable": false,
      "stateMutability": "nonpayable",
      "type": "function"
    },
    {
      "constant": false,
      "inputs": [
        {
          "internalType": "address",
          "name": "to",
          "type": "address"
        },
        {
          "internalType": "uint256",
          "name": "tokenId",
          "type": "uint256"
        }
      ],
      "name": "mint",
      "outputs": [
        {
          "internalType": "bool",
          "name": "",
          "type": "bool"
        }
      ],
      "payable": false,
      "stateMutability": "nonpayable",
      "type": "function"
    },
    {
      "constant": false,
      "inputs": [
        {
          "internalType": "address",
          "name": "to",
          "type": "address"
        },
        {
          "internalType": "uint256",
          "name": "tokenId",
          "type": "uint256"
        },
        {
          "components": [
            {
              "components": [
                {
                  "internalType": "uint256",
                  "name": "X",
                  "type": "uint256"
                },
                {
                  "internalType": "uint256",
                  "name": "Y",
                  "type": "uint256"
                }
              ],
              "internalType": "struct Pairing.G1Point",
              "name": "a",
              "type": "tuple"
            },
            {
              "components": [
                {
                  "internalType": "uint256[2]",
                  "name": "X",
                  "type": "uint256[2]"
                },
                {
                  "internalType": "uint256[2]",
                  "name": "Y",
                  "type": "uint256[2]"
                }
              ],
              "internalType": "struct Pairing.G2Point",
              "name": "b",
              "type": "tuple"
            },
            {
              "components": [
                {
                  "internalType": "uint256",
                  "name": "X",
                  "type": "uint256"
                },
                {
                  "internalType": "uint256",
                  "name": "Y",
                  "type": "uint256"
                }
              ],
              "internalType": "struct Pairing.G1Point",
              "name": "c",
              "type": "tuple"
            }
          ],
          "internalType": "struct Verifier.Proof",
          "name": "proof",
          "type": "tuple"
        },
        {
          "internalType": "uint256[2]",
          "name": "input",
          "type": "uint256[2]"
        }
      ],
      "name": "mint",
      "outputs": [],
      "payable": false,
      "stateMutability": "nonpayable",
      "type": "function"
    }
  ],
  "bytecode": "0x608060405260006015553480156200001657600080fd5b5060405162003fcd38038062003fcd83398181016040526200003c9190810190620003ca565b818181816040518060600160405280603f815260200162003f8e603f9139336000806101000a81548173ffffffffffffffffffffffffffffffffffffffff021916908373ffffffffffffffffffffffffffffffffffffffff1602179055507f9736aeb40a8f30a5c076a9897428fdf7ec0e909c96dce63533664c9b5c835da66000809054906101000a900473ffffffffffffffffffffffffffffffffffffffff16604051620000ec919062000463565b60405180910390a160008060146101000a81548160ff021916908315150217905550620001266301ffc9a760e01b6200020860201b60201c565b6200013e6380ac58cd60e01b6200020860201b60201c565b6200015663780e9d6360e01b6200020860201b60201c565b82600f90805190602001906200016e929190620002a8565b50816010908051906020019062000187929190620002a8565b508060119080519060200190620001a0929190620002a8565b50620001b9635b5e139f60e01b6200020860201b60201c565b505050505082601360006101000a81548173ffffffffffffffffffffffffffffffffffffffff021916908373ffffffffffffffffffffffffffffffffffffffff1602179055505050506200055f565b63ffffffff60e01b817bffffffffffffffffffffffffffffffffffffffffffffffffffffffff191614156200023c57600080fd5b6001806000837bffffffffffffffffffffffffffffffffffffffffffffffffffffffff19167bffffffffffffffffffffffffffffffffffffffffffffffffffffffff1916815260200190815260200160002060006101000a81548160ff02191690831515021790555050565b828054600181600116156101000203166002900490600052602060002090601f016020900481019282601f10620002eb57805160ff19168380011785556200031c565b828001600101855582156200031c579182015b828111156200031b578251825591602001919060010190620002fe565b5b5090506200032b91906200032f565b5090565b6200035491905b808211156200035057600081600090555060010162000336565b5090565b90565b600081519050620003688162000545565b92915050565b600082601f8301126200038057600080fd5b8151620003976200039182620004ae565b62000480565b91508082526020830160208301858383011115620003b457600080fd5b620003c18382846200050f565b50505092915050565b600080600060608486031215620003e057600080fd5b6000620003f08682870162000357565b935050602084015167ffffffffffffffff8111156200040e57600080fd5b6200041c868287016200036e565b925050604084015167ffffffffffffffff8111156200043a57600080fd5b62000448868287016200036e565b9150509250925092565b6200045d81620004db565b82525050565b60006020820190506200047a600083018462000452565b92915050565b6000604051905081810181811067ffffffffffffffff82111715620004a457600080fd5b8060405250919050565b600067ffffffffffffffff821115620004c657600080fd5b601f19601f8301169050602081019050919050565b6000620004e882620004ef565b9050919050565b600073ffffffffffffffffffffffffffffffffffffffff82169050919050565b60005b838110156200052f57808201518184015260208101905062000512565b838111156200053f576000848401525b50505050565b6200055081620004db565b81146200055c57600080fd5b50565b613a1f806200056f6000396000f3fe608060405234801561001057600080fd5b50600436106101735760003560e01c80634f6ccce7116100de578063b88d4fde11610097578063cdb88ad111610071578063cdb88ad11461046e578063d3aaceab1461048a578063e985e9c5146104a6578063f2fde38b146104d657610173565b8063b88d4fde14610404578063bdc32be014610420578063c87b56dd1461043e57610173565b80634f6ccce71461031e57806361d50f731461034e5780636352211e1461036a57806370a082311461039a578063893d20e8146103ca578063a22cb465146103e857610173565b806323b872dd1161013057806323b872dd1461024e57806327dc297e1461026a5780632f745c591461028657806338bbfa50146102b657806340c10f19146102d257806342842e0e1461030257610173565b806301ffc9a714610178578063081812fc146101a8578063095ea7b3146101d857806315070401146101f457806317d7de7c1461021257806318160ddd14610230575b600080fd5b610192600480360361018d9190810190612cc6565b6104f2565b60405161019f91906134c6565b60405180910390f35b6101c260048036036101bd9190810190612d18565b61055a565b6040516101cf9190613444565b60405180910390f35b6101f260048036036101ed9190810190612ac4565b610597565b005b6101fc610744565b60405161020991906134e1565b60405180910390f35b61021a6107e6565b60405161022791906134e1565b60405180910390f35b610238610888565b60405161024591906136ae565b60405180910390f35b610268600480360361026391908101906129be565b610895565b005b610284600480360361027f9190810190612bf3565b6108b8565b005b6102a0600480360361029b9190810190612ac4565b6108fb565b6040516102ad91906136ae565b60405180910390f35b6102d060048036036102cb9190810190612c47565b61096e565b005b6102ec60048036036102e79190810190612ac4565b610973565b6040516102f991906134c6565b60405180910390f35b61031c600480360361031791908101906129be565b610a78565b005b61033860048036036103339190810190612d18565b610a98565b60405161034591906136ae565b60405180910390f35b61036860048036036103639190810190612b00565b610acc565b005b610384600480360361037f9190810190612d18565b610ce6565b6040516103919190613444565b60405180910390f35b6103b460048036036103af9190810190612959565b610d23565b6040516103c191906136ae565b60405180910390f35b6103d2610d73565b6040516103df9190613444565b60405180910390f35b61040260048036036103fd9190810190612a88565b610d9c565b005b61041e60048036036104199190810190612a0d565b610ed2565b005b610428610ef8565b60405161043591906134e1565b60405180910390f35b61045860048036036104539190810190612d18565b610f9a565b60405161046591906134e1565b60405180910390f35b61048860048036036104839190810190612b65565b611061565b005b6104a4600480360361049f9190810190612bb7565b6111ba565b005b6104c060048036036104bb9190810190612982565b6112c7565b6040516104cd91906134c6565b60405180910390f35b6104f060048036036104eb9190810190612959565b61135b565b005b600060016000837bffffffffffffffffffffffffffffffffffffffffffffffffffffffff19167bffffffffffffffffffffffffffffffffffffffffffffffffffffffff1916815260200190815260200160002060009054906101000a900460ff169050919050565b60006003600083815260200190815260200160002060009054906101000a900473ffffffffffffffffffffffffffffffffffffffff169050919050565b60006105a282610ce6565b90508073ffffffffffffffffffffffffffffffffffffffff168373ffffffffffffffffffffffffffffffffffffffff161415610613576040517f08c379a000000000000000000000000000000000000000000000000000000000815260040161060a906135a3565b60405180910390fd5b8073ffffffffffffffffffffffffffffffffffffffff163373ffffffffffffffffffffffffffffffffffffffff161480610653575061065281336112c7565b5b610692576040517f08c379a0000000000000000000000000000000000000000000000000000000008152600401610689906135e3565b60405180910390fd5b826003600084815260200190815260200160002060006101000a81548173ffffffffffffffffffffffffffffffffffffffff021916908373ffffffffffffffffffffffffffffffffffffffff160217905550818373ffffffffffffffffffffffffffffffffffffffff168273ffffffffffffffffffffffffffffffffffffffff167f8c5be1e5ebec7d5bd14f71427d1e84f3dd0314c0f7b2291e5b200ac8c7c3b92560405160405180910390a4505050565b606060108054600181600116156101000203166002900480601f0160208091040260200160405190810160405280929190818152602001828054600181600116156101000203166002900480156107dc5780601f106107b1576101008083540402835291602001916107dc565b820191906000526020600020905b8154815290600101906020018083116107bf57829003601f168201915b5050505050905090565b6060600f8054600181600116156101000203166002900480601f01602080910402602001604051908101604052809291908181526020018280546001816001161561010002031660029004801561087e5780601f106108535761010080835404028352916020019161087e565b820191906000526020600020905b81548152906001019060200180831161086157829003601f168201915b5050505050905090565b6000600880549050905090565b61089f83826114d4565b6108a857600080fd5b6108b3838383611569565b505050565b6108f7828260006040519080825280601f01601f1916602001820160405280156108f15781602001600182028038833980820191505090505b5061096e565b5050565b600061090683610d23565b821061091157600080fd5b600660008473ffffffffffffffffffffffffffffffffffffffff1673ffffffffffffffffffffffffffffffffffffffff168152602001908152602001600020828154811061095b57fe5b9060005260206000200154905092915050565b505050565b60008060009054906101000a900473ffffffffffffffffffffffffffffffffffffffff1673ffffffffffffffffffffffffffffffffffffffff163373ffffffffffffffffffffffffffffffffffffffff1614610a04576040517f08c379a00000000000000000000000000000000000000000000000000000000081526004016109fb90613623565b60405180910390fd5b60001515600060149054906101000a900460ff16151514610a5a576040517f08c379a0000000000000000000000000000000000000000000000000000000008152600401610a5190613603565b60405180910390fd5b610a64838361158d565b610a6d826115ae565b506001905092915050565b610a9383838360405180602001604052806000815250610ed2565b505050565b6000610aa2610888565b8210610aad57600080fd5b60088281548110610aba57fe5b90600052602060002001549050919050565b600082600001516000015183600001516020015184602001516000015185602001516020015186604001516000015187604001516020015187604051602001610b1b97969594939291906133c3565b604051602081830303815290604052805190602001209050600073ffffffffffffffffffffffffffffffffffffffff166014600083815260200190815260200160002060010160009054906101000a900473ffffffffffffffffffffffffffffffffffffffff1673ffffffffffffffffffffffffffffffffffffffff1614610bd8576040517f08c379a0000000000000000000000000000000000000000000000000000000008152600401610bcf90613543565b60405180910390fd5b601360009054906101000a900473ffffffffffffffffffffffffffffffffffffffff1673ffffffffffffffffffffffffffffffffffffffff166343cd76fc84846040518363ffffffff1660e01b8152600401610c35929190613683565b60206040518083038186803b158015610c4d57600080fd5b505afa158015610c61573d6000803e3d6000fd5b505050506040513d601f19601f82011682018060405250610c859190810190612b8e565b15610ca457610c9481336111ba565b610c9e8585610973565b50610cdf565b6040517f08c379a0000000000000000000000000000000000000000000000000000000008152600401610cd690613563565b60405180910390fd5b5050505050565b60006002600083815260200190815260200160002060009054906101000a900473ffffffffffffffffffffffffffffffffffffffff169050919050565b6000610d6c600460008473ffffffffffffffffffffffffffffffffffffffff1673ffffffffffffffffffffffffffffffffffffffff1681526020019081526020016000206116d0565b9050919050565b60008060009054906101000a900473ffffffffffffffffffffffffffffffffffffffff16905090565b3373ffffffffffffffffffffffffffffffffffffffff168273ffffffffffffffffffffffffffffffffffffffff161415610dd557600080fd5b80600560003373ffffffffffffffffffffffffffffffffffffffff1673ffffffffffffffffffffffffffffffffffffffff16815260200190815260200160002060008473ffffffffffffffffffffffffffffffffffffffff1673ffffffffffffffffffffffffffffffffffffffff16815260200190815260200160002060006101000a81548160ff0219169083151502179055508173ffffffffffffffffffffffffffffffffffffffff163373ffffffffffffffffffffffffffffffffffffffff167f17307eab39ab6107e8899845ad3d59bd9653f200f220920489ca2b5937696c3183604051610ec691906134c6565b60405180910390a35050565b610edd848484610895565b610ee9848484846116de565b610ef257600080fd5b50505050565b606060118054600181600116156101000203166002900480601f016020809104026020016040519081016040528092919081815260200182805460018160011615610100020316600290048015610f905780601f10610f6557610100808354040283529160200191610f90565b820191906000526020600020905b815481529060010190602001808311610f7357829003601f168201915b5050505050905090565b6060610fa5826117f5565b610fae57600080fd5b601260008381526020019081526020016000208054600181600116156101000203166002900480601f0160208091040260200160405190810160405280929190818152602001828054600181600116156101000203166002900480156110555780601f1061102a57610100808354040283529160200191611055565b820191906000526020600020905b81548152906001019060200180831161103857829003601f168201915b50505050509050919050565b6000809054906101000a900473ffffffffffffffffffffffffffffffffffffffff1673ffffffffffffffffffffffffffffffffffffffff163373ffffffffffffffffffffffffffffffffffffffff16146110f0576040517f08c379a00000000000000000000000000000000000000000000000000000000081526004016110e790613623565b60405180910390fd5b80600060146101000a81548160ff02191690831515021790555060011515600060149054906101000a900460ff1615151415611162577f62e78cea01bee320cd4e420270b5ea74000d11b0c9f74754ebdbfc544b05a25833604051611155919061345f565b60405180910390a16111b7565b60001515600060149054906101000a900460ff16151514156111b6577f5db9ee0a495bf2e6ff9c91a7834c1ba4fdd244a5e8aa4e537bd38aeae4b073aa336040516111ad919061345f565b60405180910390a15b5b50565b6015546014600084815260200190815260200160002060000181905550806014600084815260200190815260200160002060010160006101000a81548173ffffffffffffffffffffffffffffffffffffffff021916908373ffffffffffffffffffffffffffffffffffffffff1602179055507f078793128cefb19aac38a33f9e5df39f67716907f6d747e8065545699e0b2b8d60146000848152602001908152602001600020600001546014600085815260200190815260200160002060010160009054906101000a900473ffffffffffffffffffffffffffffffffffffffff166040516112a99291906136c9565b60405180910390a16015600081548092919060010191905055505050565b6000600560008473ffffffffffffffffffffffffffffffffffffffff1673ffffffffffffffffffffffffffffffffffffffff16815260200190815260200160002060008373ffffffffffffffffffffffffffffffffffffffff1673ffffffffffffffffffffffffffffffffffffffff16815260200190815260200160002060009054906101000a900460ff16905092915050565b6000809054906101000a900473ffffffffffffffffffffffffffffffffffffffff1673ffffffffffffffffffffffffffffffffffffffff163373ffffffffffffffffffffffffffffffffffffffff16146113ea576040517f08c379a00000000000000000000000000000000000000000000000000000000081526004016113e190613623565b60405180910390fd5b600073ffffffffffffffffffffffffffffffffffffffff168173ffffffffffffffffffffffffffffffffffffffff16141561145a576040517f08c379a000000000000000000000000000000000000000000000000000000000815260040161145190613583565b60405180910390fd5b806000806101000a81548173ffffffffffffffffffffffffffffffffffffffff021916908373ffffffffffffffffffffffffffffffffffffffff1602179055507f9736aeb40a8f30a5c076a9897428fdf7ec0e909c96dce63533664c9b5c835da6816040516114c99190613444565b60405180910390a150565b6000806114e083610ce6565b90508073ffffffffffffffffffffffffffffffffffffffff168473ffffffffffffffffffffffffffffffffffffffff16148061154f57508373ffffffffffffffffffffffffffffffffffffffff166115378461055a565b73ffffffffffffffffffffffffffffffffffffffff16145b80611560575061155f81856112c7565b5b91505092915050565b611574838383611867565b61157e8382611a96565b6115888282611c34565b505050565b6115978282611cfb565b6115a18282611c34565b6115aa81611f06565b5050565b60606115b9826117f5565b6115f8576040517f08c379a00000000000000000000000000000000000000000000000000000000081526004016115ef90613503565b60405180910390fd5b6116a460118054600181600116156101000203166002900480601f0160208091040260200160405190810160405280929190818152602001828054600181600116156101000203166002900480156116915780601f1061166657610100808354040283529160200191611691565b820191906000526020600020905b81548152906001019060200180831161167457829003601f168201915b505050505061169f84611f52565b61207f565b6012600084815260200190815260200160002090805190602001906116ca92919061256c565b50919050565b600081600001549050919050565b60006116ff8473ffffffffffffffffffffffffffffffffffffffff166120c3565b61170c57600190506117ed565b60008473ffffffffffffffffffffffffffffffffffffffff1663150b7a02338887876040518563ffffffff1660e01b815260040161174d949392919061347a565b602060405180830381600087803b15801561176757600080fd5b505af115801561177b573d6000803e3d6000fd5b505050506040513d601f19601f8201168201806040525061179f9190810190612cef565b905063150b7a0260e01b7bffffffffffffffffffffffffffffffffffffffffffffffffffffffff1916817bffffffffffffffffffffffffffffffffffffffffffffffffffffffff1916149150505b949350505050565b6000806002600084815260200190815260200160002060009054906101000a900473ffffffffffffffffffffffffffffffffffffffff169050600073ffffffffffffffffffffffffffffffffffffffff168173ffffffffffffffffffffffffffffffffffffffff161415915050919050565b61187081610ce6565b73ffffffffffffffffffffffffffffffffffffffff168373ffffffffffffffffffffffffffffffffffffffff16146118dd576040517f08c379a00000000000000000000000000000000000000000000000000000000081526004016118d490613663565b60405180910390fd5b600073ffffffffffffffffffffffffffffffffffffffff168273ffffffffffffffffffffffffffffffffffffffff16141561194d576040517f08c379a000000000000000000000000000000000000000000000000000000000815260040161194490613643565b60405180910390fd5b6119568161210e565b61199d600460008573ffffffffffffffffffffffffffffffffffffffff1673ffffffffffffffffffffffffffffffffffffffff1681526020019081526020016000206121cc565b6119e4600460008473ffffffffffffffffffffffffffffffffffffffff1673ffffffffffffffffffffffffffffffffffffffff1681526020019081526020016000206121ef565b816002600083815260200190815260200160002060006101000a81548173ffffffffffffffffffffffffffffffffffffffff021916908373ffffffffffffffffffffffffffffffffffffffff160217905550808273ffffffffffffffffffffffffffffffffffffffff168473ffffffffffffffffffffffffffffffffffffffff167fddf252ad1be2c89b69c2b068fc378daa952ba7f163c4a11628f55a4df523b3ef60405160405180910390a4505050565b6000611aee6001600660008673ffffffffffffffffffffffffffffffffffffffff1673ffffffffffffffffffffffffffffffffffffffff1681526020019081526020016000208054905061220590919063ffffffff16565b9050600060076000848152602001908152602001600020549050818114611bdb576000600660008673ffffffffffffffffffffffffffffffffffffffff1673ffffffffffffffffffffffffffffffffffffffff1681526020019081526020016000208381548110611b5b57fe5b9060005260206000200154905080600660008773ffffffffffffffffffffffffffffffffffffffff1673ffffffffffffffffffffffffffffffffffffffff1681526020019081526020016000208381548110611bb357fe5b9060005260206000200181905550816007600083815260200190815260200160002081905550505b600660008573ffffffffffffffffffffffffffffffffffffffff1673ffffffffffffffffffffffffffffffffffffffff168152602001908152602001600020805480919060019003611c2d91906125ec565b5050505050565b600660008373ffffffffffffffffffffffffffffffffffffffff1673ffffffffffffffffffffffffffffffffffffffff168152602001908152602001600020805490506007600083815260200190815260200160002081905550600660008373ffffffffffffffffffffffffffffffffffffffff1673ffffffffffffffffffffffffffffffffffffffff1681526020019081526020016000208190806001815401808255809150509060018203906000526020600020016000909192909190915055505050565b600073ffffffffffffffffffffffffffffffffffffffff166002600083815260200190815260200160002060009054906101000a900473ffffffffffffffffffffffffffffffffffffffff1673ffffffffffffffffffffffffffffffffffffffff1614611d9d576040517f08c379a0000000000000000000000000000000000000000000000000000000008152600401611d9490613523565b60405180910390fd5b600073ffffffffffffffffffffffffffffffffffffffff168273ffffffffffffffffffffffffffffffffffffffff161415611e0d576040517f08c379a0000000000000000000000000000000000000000000000000000000008152600401611e04906135c3565b60405180910390fd5b816002600083815260200190815260200160002060006101000a81548173ffffffffffffffffffffffffffffffffffffffff021916908373ffffffffffffffffffffffffffffffffffffffff160217905550611ea6600460008473ffffffffffffffffffffffffffffffffffffffff1673ffffffffffffffffffffffffffffffffffffffff1681526020019081526020016000206121ef565b808273ffffffffffffffffffffffffffffffffffffffff16600073ffffffffffffffffffffffffffffffffffffffff167fddf252ad1be2c89b69c2b068fc378daa952ba7f163c4a11628f55a4df523b3ef60405160405180910390a45050565b6008805490506009600083815260200190815260200160002081905550600881908060018154018082558091505090600182039060005260206000200160009091929091909150555050565b60606000821415611f9a576040518060400160405280600181526020017f3000000000000000000000000000000000000000000000000000000000000000815250905061207a565b600082905060005b60008214611fc4578080600101915050600a8281611fbc57fe5b049150611fa2565b6060816040519080825280601f01601f191660200182016040528015611ff95781602001600182028038833980820191505090505b50905060006001830390505b6000861461207257600a868161201757fe5b0660300160f81b8282806001900393508151811061203157fe5b60200101907effffffffffffffffffffffffffffffffffffffffffffffffffffffffffffff1916908160001a905350600a868161206a57fe5b049550612005565b819450505050505b919050565b60606120bb838360405180602001604052806000815250604051806020016040528060008152506040518060200160405280600081525061224f565b905092915050565b60008060007fc5d2460186f7233c927e7db2dcc703c0e500b653ca82273b7bfad8045d85a47060001b9050833f915080821415801561210557506000801b8214155b92505050919050565b600073ffffffffffffffffffffffffffffffffffffffff166003600083815260200190815260200160002060009054906101000a900473ffffffffffffffffffffffffffffffffffffffff1673ffffffffffffffffffffffffffffffffffffffff16146121c95760006003600083815260200190815260200160002060006101000a81548173ffffffffffffffffffffffffffffffffffffffff021916908373ffffffffffffffffffffffffffffffffffffffff1602179055505b50565b6121e46001826000015461220590919063ffffffff16565b816000018190555050565b6001816000016000828254019250508190555050565b600061224783836040518060400160405280601e81526020017f536166654d6174683a207375627472616374696f6e206f766572666c6f770000815250612511565b905092915050565b6060808690506060869050606086905060608690506060869050606081518351855187518951010101016040519080825280601f01601f1916602001820160405280156122ab5781602001600182028038833980820191505090505b509050606081905060008090506000809050600090505b8851811015612330578881815181106122d757fe5b602001015160f81c60f81b8383806001019450815181106122f457fe5b60200101907effffffffffffffffffffffffffffffffffffffffffffffffffffffffffffff1916908160001a90535080806001019150506122c2565b600090505b87518110156123a35787818151811061234a57fe5b602001015160f81c60f81b83838060010194508151811061236757fe5b60200101907effffffffffffffffffffffffffffffffffffffffffffffffffffffffffffff1916908160001a9053508080600101915050612335565b600090505b8651811015612416578681815181106123bd57fe5b602001015160f81c60f81b8383806001019450815181106123da57fe5b60200101907effffffffffffffffffffffffffffffffffffffffffffffffffffffffffffff1916908160001a90535080806001019150506123a8565b600090505b85518110156124895785818151811061243057fe5b602001015160f81c60f81b83838060010194508151811061244d57fe5b60200101907effffffffffffffffffffffffffffffffffffffffffffffffffffffffffffff1916908160001a905350808060010191505061241b565b600090505b84518110156124fc578481815181106124a357fe5b602001015160f81c60f81b8383806001019450815181106124c057fe5b60200101907effffffffffffffffffffffffffffffffffffffffffffffffffffffffffffff1916908160001a905350808060010191505061248e565b82995050505050505050505095945050505050565b6000838311158290612559576040517f08c379a000000000000000000000000000000000000000000000000000000000815260040161255091906134e1565b60405180910390fd5b5060008385039050809150509392505050565b828054600181600116156101000203166002900490600052602060002090601f016020900481019282601f106125ad57805160ff19168380011785556125db565b828001600101855582156125db579182015b828111156125da5782518255916020019190600101906125bf565b5b5090506125e89190612618565b5090565b815481835581811115612613578183600052602060002091820191016126129190612618565b5b505050565b61263a91905b8082111561263657600081600090555060010161261e565b5090565b90565b60008135905061264c81613969565b92915050565b600082601f83011261266357600080fd5b60026126766126718261371f565b6136f2565b9150818385602084028201111561268c57600080fd5b60005b838110156126bc57816126a28882612944565b84526020840193506020830192505060018101905061268f565b5050505092915050565b600082601f8301126126d757600080fd5b60026126ea6126e582613741565b6136f2565b9150818385602084028201111561270057600080fd5b60005b8381101561273057816127168882612944565b845260208401935060208301925050600181019050612703565b5050505092915050565b60008135905061274981613980565b92915050565b60008151905061275e81613980565b92915050565b60008135905061277381613997565b92915050565b600081359050612788816139ae565b92915050565b60008151905061279d816139ae565b92915050565b600082601f8301126127b457600080fd5b81356127c76127c282613763565b6136f2565b915080825260208301602083018583830111156127e357600080fd5b6127ee83828461390c565b50505092915050565b600082601f83011261280857600080fd5b813561281b6128168261378f565b6136f2565b9150808252602083016020830185838301111561283757600080fd5b61284283828461390c565b50505092915050565b60006040828403121561285d57600080fd5b61286760406136f2565b9050600061287784828501612944565b600083015250602061288b84828501612944565b60208301525092915050565b6000608082840312156128a957600080fd5b6128b360406136f2565b905060006128c384828501612652565b60008301525060406128d784828501612652565b60208301525092915050565b600061010082840312156128f657600080fd5b61290060606136f2565b905060006129108482850161284b565b600083015250604061292484828501612897565b60208301525060c06129388482850161284b565b60408301525092915050565b600081359050612953816139c5565b92915050565b60006020828403121561296b57600080fd5b60006129798482850161263d565b91505092915050565b6000806040838503121561299557600080fd5b60006129a38582860161263d565b92505060206129b48582860161263d565b9150509250929050565b6000806000606084860312156129d357600080fd5b60006129e18682870161263d565b93505060206129f28682870161263d565b9250506040612a0386828701612944565b9150509250925092565b60008060008060808587031215612a2357600080fd5b6000612a318782880161263d565b9450506020612a428782880161263d565b9350506040612a5387828801612944565b925050606085013567ffffffffffffffff811115612a7057600080fd5b612a7c878288016127a3565b91505092959194509250565b60008060408385031215612a9b57600080fd5b6000612aa98582860161263d565b9250506020612aba8582860161273a565b9150509250929050565b60008060408385031215612ad757600080fd5b6000612ae58582860161263d565b9250506020612af685828601612944565b9150509250929050565b6000806000806101808587031215612b1757600080fd5b6000612b258782880161263d565b9450506020612b3687828801612944565b9350506040612b47878288016128e3565b925050610140612b59878288016126c6565b91505092959194509250565b600060208284031215612b7757600080fd5b6000612b858482850161273a565b91505092915050565b600060208284031215612ba057600080fd5b6000612bae8482850161274f565b91505092915050565b60008060408385031215612bca57600080fd5b6000612bd885828601612764565b9250506020612be98582860161263d565b9150509250929050565b60008060408385031215612c0657600080fd5b6000612c1485828601612764565b925050602083013567ffffffffffffffff811115612c3157600080fd5b612c3d858286016127f7565b9150509250929050565b600080600060608486031215612c5c57600080fd5b6000612c6a86828701612764565b935050602084013567ffffffffffffffff811115612c8757600080fd5b612c93868287016127f7565b925050604084013567ffffffffffffffff811115612cb057600080fd5b612cbc868287016127a3565b9150509250925092565b600060208284031215612cd857600080fd5b6000612ce684828501612779565b91505092915050565b600060208284031215612d0157600080fd5b6000612d0f8482850161278e565b91505092915050565b600060208284031215612d2a57600080fd5b6000612d3884828501612944565b91505092915050565b6000612d4d838361337f565b60208301905092915050565b6000612d65838361339d565b60208301905092915050565b612d7a816138d6565b82525050565b612d8981613858565b82525050565b612d98816137da565b612da28184613820565b9250612dad826137c5565b8060005b83811015612dde578151612dc58782612d41565b9650612dd083613808565b925050600181019050612db1565b505050505050565b612def816137da565b612df9818461382b565b9250612e04826137c5565b8060005b83811015612e35578151612e1c8782612d59565b9650612e2783613808565b925050600181019050612e08565b505050505050565b612e46816137cf565b612e508184613815565b9250612e5b826137bb565b8060005b83811015612e8c578151612e738782612d41565b9650612e7e836137fb565b925050600181019050612e5f565b505050505050565b612e9d816137cf565b612ea7818461382b565b9250612eb2826137bb565b8060005b83811015612ee3578151612eca8782612d59565b9650612ed5836137fb565b925050600181019050612eb6565b505050505050565b612ef48161386a565b82525050565b6000612f05826137e5565b612f0f8185613836565b9350612f1f81856020860161391b565b612f2881613958565b840191505092915050565b6000612f3e826137f0565b612f488185613847565b9350612f5881856020860161391b565b612f6181613958565b840191505092915050565b6000612f79601383613847565b91507f546f6b656e20646f65736e2774206578697374000000000000000000000000006000830152602082019050919050565b6000612fb9601383613847565b91507f546f6b656e20616c7265616479206578697374000000000000000000000000006000830152602082019050919050565b6000612ff9601583613847565b91507f536f6c7574696f6e20616c7265616479207573656400000000000000000000006000830152602082019050919050565b6000613039601583613847565b91507f50726f6f66207761736e277420766572696669656400000000000000000000006000830152602082019050919050565b6000613079602383613847565b91507f41646472657373206f66206e6577206f776e6572206e6f74207265636f676e6960008301527f7a656400000000000000000000000000000000000000000000000000000000006020830152604082019050919050565b60006130df602783613847565b91507f416464726573732063616e277420626520746865206f776e6572206f6620746860008301527f6520746f6b656e000000000000000000000000000000000000000000000000006020830152604082019050919050565b6000613145601983613847565b91507f496e76616c696420726563657069656e742061646472657373000000000000006000830152602082019050919050565b6000613185601583613847565b91507f53656e6465722069736e277420617070726f76656400000000000000000000006000830152602082019050919050565b60006131c5601283613847565b91507f436f6e74726163742069732070617573656400000000000000000000000000006000830152602082019050919050565b6000613205601783613847565b91507f5265717565737465722069736e277420616c6c6f7765640000000000000000006000830152602082019050919050565b6000613245601c83613847565b91507f526563657069656e74206164647265737320697320696e76616c6964000000006000830152602082019050919050565b6000613285602383613847565b91507f53656e6465722069736e277420746865206f776e6572206f662074686520746f60008301527f6b656e00000000000000000000000000000000000000000000000000000000006020830152604082019050919050565b6040820160008201516132f4600085018261337f565b506020820151613307602085018261337f565b50505050565b6080820160008201516133236000850182612e3d565b5060208201516133366040850182612e3d565b50505050565b6101008201600082015161335360008501826132de565b506020820151613366604085018261330d565b50604082015161337960c08501826132de565b50505050565b613388816138cc565b82525050565b613397816138cc565b82525050565b6133a6816138cc565b82525050565b6133bd6133b8826138cc565b61394e565b82525050565b60006133cf828a6133ac565b6020820191506133df82896133ac565b6020820191506133ef8288612e94565b6040820191506133ff8287612e94565b60408201915061340f82866133ac565b60208201915061341f82856133ac565b60208201915061342f8284612de6565b60408201915081905098975050505050505050565b60006020820190506134596000830184612d80565b92915050565b60006020820190506134746000830184612d71565b92915050565b600060808201905061348f6000830187612d71565b61349c6020830186612d80565b6134a9604083018561338e565b81810360608301526134bb8184612efa565b905095945050505050565b60006020820190506134db6000830184612eeb565b92915050565b600060208201905081810360008301526134fb8184612f33565b905092915050565b6000602082019050818103600083015261351c81612f6c565b9050919050565b6000602082019050818103600083015261353c81612fac565b9050919050565b6000602082019050818103600083015261355c81612fec565b9050919050565b6000602082019050818103600083015261357c8161302c565b9050919050565b6000602082019050818103600083015261359c8161306c565b9050919050565b600060208201905081810360008301526135bc816130d2565b9050919050565b600060208201905081810360008301526135dc81613138565b9050919050565b600060208201905081810360008301526135fc81613178565b9050919050565b6000602082019050818103600083015261361c816131b8565b9050919050565b6000602082019050818103600083015261363c816131f8565b9050919050565b6000602082019050818103600083015261365c81613238565b9050919050565b6000602082019050818103600083015261367c81613278565b9050919050565b600061014082019050613699600083018561333c565b6136a7610100830184612d8f565b9392505050565b60006020820190506136c3600083018461338e565b92915050565b60006040820190506136de600083018561338e565b6136eb6020830184612d80565b9392505050565b6000604051905081810181811067ffffffffffffffff8211171561371557600080fd5b8060405250919050565b600067ffffffffffffffff82111561373657600080fd5b602082029050919050565b600067ffffffffffffffff82111561375857600080fd5b602082029050919050565b600067ffffffffffffffff82111561377a57600080fd5b601f19601f8301169050602081019050919050565b600067ffffffffffffffff8211156137a657600080fd5b601f19601f8301169050602081019050919050565b6000819050919050565b6000819050919050565b600060029050919050565b600060029050919050565b600081519050919050565b600081519050919050565b6000602082019050919050565b6000602082019050919050565b600081905092915050565b600081905092915050565b600081905092915050565b600082825260208201905092915050565b600082825260208201905092915050565b6000613863826138ac565b9050919050565b60008115159050919050565b6000819050919050565b60007fffffffff0000000000000000000000000000000000000000000000000000000082169050919050565b600073ffffffffffffffffffffffffffffffffffffffff82169050919050565b6000819050919050565b60006138e1826138e8565b9050919050565b60006138f3826138fa565b9050919050565b6000613905826138ac565b9050919050565b82818337600083830152505050565b60005b8381101561393957808201518184015260208101905061391e565b83811115613948576000848401525b50505050565b6000819050919050565b6000601f19601f8301169050919050565b61397281613858565b811461397d57600080fd5b50565b6139898161386a565b811461399457600080fd5b50565b6139a081613876565b81146139ab57600080fd5b50565b6139b781613880565b81146139c257600080fd5b50565b6139ce816138cc565b81146139d957600080fd5b5056fea365627a7a7231582004d7a555a8c7bf0e13d6eb5d608d48d4383b64943821f8ae7c242dfe58ffc5b06c6578706572696d656e74616cf564736f6c6343000510004068747470733a2f2f73332d75732d776573742d322e616d617a6f6e6177732e636f6d2f756461636974792d626c6f636b636861696e2f63617073746f6e652f",
  "source": "pragma solidity >=0.4.21 <0.6.0;\npragma experimental ABIEncoderV2;\n\n// TODO define a contract call to the zokrates generated solidity contract <Verifier> or <renamedVerifier>\nimport \"./Verifier.sol\";\nimport \"./ERC721MintableComplete.sol\";\n\n// contract Verifier {\n//     function verifyTx(Proof memory proof, uint[2] memory input) public view returns (bool r);\n// }\n\n// TODO define another contract named SolnSquareVerifier that inherits from your ERC721Mintable class\ncontract SolnSquareVerifier is ERC721MintableComplete {\n    Verifier private verifier;\n\n    // TODO define a solutions struct that can hold an index & an address\n    struct Solution {\n        uint256 solutionIndex;\n        address solutionAddress;\n    }\n\n    // TODO define an array of the above struct\n    // Solution[] private solution;\n\n    // TODO define a mapping to store unique solutions submitted\n    mapping(bytes32 => Solution) solutions;\n    uint256 solutionTotal = 0;\n\n    // TODO Create an event to emit when a solution is added\n    event SolutionAdded(uint256 newSolutionIndex, address newSolutionAddress);\n\n    // TODO Create a function to add the solutions to the array and emit the event\n\n    constructor(address verifierAddress, string memory name, string memory symbol) ERC721MintableComplete(name, symbol) public {\n        verifier = Verifier(verifierAddress);\n    }\n\n    function addSolution(bytes32 solutionKey, address solutionAddress) public {\n        solutions[solutionKey].solutionIndex = solutionTotal;\n        solutions[solutionKey].solutionAddress = solutionAddress;\n\n        emit SolutionAdded(solutions[solutionKey].solutionIndex, solutions[solutionKey].solutionAddress);\n        solutionTotal++;\n    }\n\n    // TODO Create a function to mint new NFT only after the solution has been verified\n    //  - make sure the solution is unique (has not been used before)\n    //  - make sure you handle metadata as well as tokenSuplly\n    function mint(address to, uint256 tokenId, Verifier.Proof memory proof, uint[2] memory input) public {\n        bytes32 solutionKey = keccak256(abi.encodePacked(proof.a.X, proof.a.Y, proof.b.X, proof.b.Y, proof.c.X, proof.c.Y, input));\n        require(solutions[solutionKey].solutionAddress == address(0x0), \"Solution already used\");\n        \n        if (verifier.verifyTx(proof, input)) {\n            addSolution(solutionKey, msg.sender);\n            mint(to, tokenId);\n        } else revert(\"Proof wasn't verified\");\n        \n\n    }\n}",
  "sourcePath": "/Users/jay/dev/dapp-housing-nft/eth-contracts/contracts/SolnSquareVerifier.sol",
  "compiler": {
    "name": "solc",
    "version": "0.5.16+commit.9c3226ce.Emscripten.clang"
  },
  "schemaVersion": "3.4.4",
  "updatedAt": "2022-01-09T04:08:38.202Z",
  "devdoc": {
    "methods": {
      "isApprovedForAll(address,address)": {
        "details": "Tells whether an operator is approved by a given owner",
        "params": {
          "operator": "operator address which you want to query the approval of",
          "owner": "owner address which you want to query the approval of"
        },
        "return": "bool whether the given operator is approved by the given owner"
      },
      "setApprovalForAll(address,bool)": {
        "details": "Sets or unsets the approval of a given operator An operator is allowed to transfer all tokens of the sender on their behalf",
        "params": {
          "approved": "representing the status of the approval to be set",
          "to": "operator address to set the approval"
        }
      },
      "supportsInterface(bytes4)": {
        "details": "implement supportsInterface(bytes4) using a lookup table"
      },
      "tokenByIndex(uint256)": {
        "details": "Gets the token ID at a given index of all the tokens in this contract Reverts if the index is greater or equal to the total number of tokens",
        "params": {
          "index": "uint256 representing the index to be accessed of the tokens list"
        },
        "return": "uint256 token ID at the given index of the tokens list"
      },
      "tokenOfOwnerByIndex(address,uint256)": {
        "details": "Gets the token ID at a given index of the tokens list of the requested owner",
        "params": {
          "index": "uint256 representing the index to be accessed of the requested tokens list",
          "owner": "address owning the tokens list to be accessed"
        },
        "return": "uint256 token ID at the given index of the tokens list owned by the requested address"
      },
      "totalSupply()": {
        "details": "Gets the total amount of tokens stored by the contract",
        "return": "uint256 representing the total amount of tokens"
      }
    }
  },
  "userdoc": {
    "methods": {}
  }
}